{
  "contractName": "Adoption",
  "abi": [
    {
      "constant": true,
      "inputs": [
        {
          "name": "",
          "type": "uint256"
        }
      ],
      "name": "adopters",
      "outputs": [
        {
          "name": "",
          "type": "address"
        }
      ],
      "payable": false,
      "stateMutability": "view",
      "type": "function"
    },
    {
      "constant": false,
      "inputs": [
        {
          "name": "petId",
          "type": "uint256"
        }
      ],
      "name": "adopt",
      "outputs": [
        {
          "name": "",
          "type": "uint256"
        }
      ],
      "payable": false,
      "stateMutability": "nonpayable",
      "type": "function"
    },
    {
      "constant": true,
      "inputs": [],
      "name": "getAdopters",
      "outputs": [
        {
          "name": "",
          "type": "address[16]"
        }
      ],
      "payable": false,
      "stateMutability": "view",
      "type": "function"
    }
  ],
  "bytecode": "0x608060405234801561001057600080fd5b506102f3806100206000396000f3fe608060405260043610610057576000357c0100000000000000000000000000000000000000000000000000000000900463ffffffff1680633de4eb171461005c57806343ae80d3146100af5780638588b2c51461012a575b600080fd5b34801561006857600080fd5b50610071610179565b6040518082601060200280838360005b8381101561009c578082015181840152602081019050610081565b5050505090500191505060405180910390f35b3480156100bb57600080fd5b506100e8600480360360208110156100d257600080fd5b81019080803590602001909291905050506101fa565b604051808273ffffffffffffffffffffffffffffffffffffffff1673ffffffffffffffffffffffffffffffffffffffff16815260200191505060405180910390f35b34801561013657600080fd5b506101636004803603602081101561014d57600080fd5b810190808035906020019092919050505061022f565b6040518082815260200191505060405180910390f35b6101816102a3565b60006010806020026040519081016040528092919082601080156101f0576020028201915b8160009054906101000a900473ffffffffffffffffffffffffffffffffffffffff1673ffffffffffffffffffffffffffffffffffffffff16815260200190600101908083116101a6575b5050505050905090565b60008160108110151561020957fe5b016000915054906101000a900473ffffffffffffffffffffffffffffffffffffffff1681565b60008082101580156102415750601082105b151561024c57600080fd5b3360008360108110151561025c57fe5b0160006101000a81548173ffffffffffffffffffffffffffffffffffffffff021916908373ffffffffffffffffffffffffffffffffffffffff160217905550819050919050565b6102006040519081016040528060109060208202803883398082019150509050509056fea165627a7a72305820c9e7e7f6c53dd5b832ffd90415973574b9335788a6c093b3d84ac76ec755a85e0029",
  "source": "pragma solidity ^0.5.0;\r\n\r\ncontract Adoption {\r\n  address[16] public adopters;\r\n\r\n  // Adopting a pet\r\n  function adopt(uint petId) public returns (uint) {\r\n    require(petId >= 0 && petId < 16);\r\n\r\n    adopters[petId] = msg.sender;\r\n\r\n    return petId;\r\n  }\r\n\r\n  // Retrieving the adopters\r\n  function getAdopters() public view returns (address[16] memory) {\r\n      return adopters;\r\n  }\r\n}\r\n",
  "sourcePath": "C:/Users/user/Desktop/blockchain-project/contracts/Adoption.sol",
  "compiler": {
    "name": "solc",
    "version": "0.5.0+commit.1d4f565a.Emscripten.clang"
  },
  "schemaVersion": "3.0.9",
  "updatedAt": "2019-05-09T08:58:31.414Z",
  "devdoc": {
    "methods": {}
  },
  "userdoc": {
    "methods": {}
  }
}