{
  "contractName": "Daggle",
  "abi": [
    {
      "constant": true,
      "inputs": [],
      "name": "title",
      "outputs": [
        {
          "name": "",
          "type": "string"
        }
      ],
      "payable": false,
      "stateMutability": "view",
      "type": "function"
    },
    {
      "constant": true,
      "inputs": [],
      "name": "description",
      "outputs": [
        {
          "name": "",
          "type": "string"
        }
      ],
      "payable": false,
      "stateMutability": "view",
      "type": "function"
    },
    {
      "constant": true,
      "inputs": [],
      "name": "isFinished",
      "outputs": [
        {
          "name": "",
          "type": "bool"
        }
      ],
      "payable": false,
      "stateMutability": "view",
      "type": "function"
    },
    {
      "constant": true,
      "inputs": [],
      "name": "currentLeader",
      "outputs": [
        {
          "name": "",
          "type": "address"
        }
      ],
      "payable": false,
      "stateMutability": "view",
      "type": "function"
    },
    {
      "constant": true,
      "inputs": [],
      "name": "problemOwner",
      "outputs": [
        {
          "name": "",
          "type": "address"
        }
      ],
      "payable": false,
      "stateMutability": "view",
      "type": "function"
    },
    {
      "constant": true,
      "inputs": [],
      "name": "rewardAmount",
      "outputs": [
        {
          "name": "",
          "type": "uint256"
        }
      ],
      "payable": false,
      "stateMutability": "view",
      "type": "function"
    },
    {
      "constant": true,
      "inputs": [],
      "name": "bestAccuracy",
      "outputs": [
        {
          "name": "",
          "type": "int256"
        }
      ],
      "payable": false,
      "stateMutability": "view",
      "type": "function"
    },
    {
      "inputs": [
        {
          "name": "_title",
          "type": "string"
        },
        {
          "name": "_description",
          "type": "string"
        },
        {
          "name": "_rewardAmount",
          "type": "uint256"
        },
        {
          "name": "_trainDataIpfsPath",
          "type": "string"
        },
        {
          "name": "_testDataIpfsPath",
          "type": "string"
        }
      ],
      "payable": false,
      "stateMutability": "nonpayable",
      "type": "constructor"
    },
    {
      "constant": false,
      "inputs": [
        {
          "name": "_title",
          "type": "string"
        },
        {
          "name": "_description",
          "type": "string"
        },
        {
          "name": "_rewardAmount",
          "type": "uint256"
        },
        {
          "name": "_trainDataIpfsPath",
          "type": "string"
        },
        {
          "name": "_testDataIpfsPath",
          "type": "string"
        }
      ],
      "name": "createCompetition",
      "outputs": [
        {
          "name": "",
          "type": "bool"
        }
      ],
      "payable": true,
      "stateMutability": "payable",
      "type": "function"
    },
    {
      "constant": false,
      "inputs": [
        {
          "name": "_competitor",
          "type": "address"
        },
        {
          "name": "_ipfsPath",
          "type": "string"
        },
        {
          "name": "_accuracy",
          "type": "int256"
        }
      ],
      "name": "submit",
      "outputs": [
        {
          "name": "",
          "type": "bool"
        },
        {
          "name": "",
          "type": "int256"
        },
        {
          "name": "",
          "type": "uint256"
        }
      ],
      "payable": false,
      "stateMutability": "nonpayable",
      "type": "function"
    },
    {
      "constant": true,
      "inputs": [],
      "name": "getSubmission",
      "outputs": [
        {
          "name": "",
          "type": "string"
        },
        {
          "name": "",
          "type": "int256"
        },
        {
          "name": "",
          "type": "uint256"
        }
      ],
      "payable": false,
      "stateMutability": "view",
      "type": "function"
    },
    {
      "constant": false,
      "inputs": [],
      "name": "finalize",
      "outputs": [
        {
          "name": "",
          "type": "string"
        },
        {
          "name": "",
          "type": "int256"
        },
        {
          "name": "",
          "type": "uint256"
        }
      ],
      "payable": false,
      "stateMutability": "nonpayable",
      "type": "function"
    }
  ],
  "bytecode": "0x608060405234801561001057600080fd5b506110ba806100206000396000f3fe6080604052600436106100af576000357c0100000000000000000000000000000000000000000000000000000000900463ffffffff1680632d160693146100b45780634a79d50c146101525780634bb278f3146101e257806353a9e837146102805780637284e4161461038a5780637b3529621461041a578063a1fdb59814610449578063ac4bd53a146106d3578063b45d80b21461072a578063f7b2a7be14610781578063faacc8cc146107ac575b600080fd5b3480156100c057600080fd5b506100c96107d7565b6040518080602001848152602001838152602001828103825285818151815260200191508051906020019080838360005b838110156101155780820151818401526020810190506100fa565b50505050905090810190601f1680156101425780820380516001836020036101000a031916815260200191505b5094505050505060405180910390f35b34801561015e57600080fd5b50610167610905565b6040518080602001828103825283818151815260200191508051906020019080838360005b838110156101a757808201518184015260208101905061018c565b50505050905090810190601f1680156101d45780820380516001836020036101000a031916815260200191505b509250505060405180910390f35b3480156101ee57600080fd5b506101f76109a3565b6040518080602001848152602001838152602001828103825285818151815260200191508051906020019080838360005b83811015610243578082015181840152602081019050610228565b50505050905090810190601f1680156102705780820380516001836020036101000a031916815260200191505b5094505050505060405180910390f35b34801561028c57600080fd5b50610370600480360360608110156102a357600080fd5b81019080803573ffffffffffffffffffffffffffffffffffffffff169060200190929190803590602001906401000000008111156102e057600080fd5b8201836020820111156102f257600080fd5b8035906020019184600183028401116401000000008311171561031457600080fd5b91908080601f016020809104026020016040519081016040528093929190818152602001838380828437600081840152601f19601f82011690508083019250505050505050919291929080359060200190929190505050610bec565b604051808215151515815260200191505060405180910390f35b34801561039657600080fd5b5061039f610d55565b6040518080602001828103825283818151815260200191508051906020019080838360005b838110156103df5780820151818401526020810190506103c4565b50505050905090810190601f16801561040c5780820380516001836020036101000a031916815260200191505b509250505060405180910390f35b34801561042657600080fd5b5061042f610df3565b604051808215151515815260200191505060405180910390f35b6106d1600480360360a081101561045f57600080fd5b810190808035906020019064010000000081111561047c57600080fd5b82018360208201111561048e57600080fd5b803590602001918460018302840111640100000000831117156104b057600080fd5b91908080601f016020809104026020016040519081016040528093929190818152602001838380828437600081840152601f19601f8201169050808301925050505050505091929192908035906020019064010000000081111561051357600080fd5b82018360208201111561052557600080fd5b8035906020019184600183028401116401000000008311171561054757600080fd5b91908080601f016020809104026020016040519081016040528093929190818152602001838380828437600081840152601f19601f82011690508083019250505050505050919291929080359060200190929190803590602001906401000000008111156105b457600080fd5b8201836020820111156105c657600080fd5b803590602001918460018302840111640100000000831117156105e857600080fd5b91908080601f016020809104026020016040519081016040528093929190818152602001838380828437600081840152601f19601f8201169050808301925050505050505091929192908035906020019064010000000081111561064b57600080fd5b82018360208201111561065d57600080fd5b8035906020019184600183028401116401000000008311171561067f57600080fd5b91908080601f016020809104026020016040519081016040528093929190818152602001838380828437600081840152601f19601f820116905080830192505050505050509192919290505050610e06565b005b3480156106df57600080fd5b506106e8610ef0565b604051808273ffffffffffffffffffffffffffffffffffffffff1673ffffffffffffffffffffffffffffffffffffffff16815260200191505060405180910390f35b34801561073657600080fd5b5061073f610f16565b604051808273ffffffffffffffffffffffffffffffffffffffff1673ffffffffffffffffffffffffffffffffffffffff16815260200191505060405180910390f35b34801561078d57600080fd5b50610796610f3b565b6040518082815260200191505060405180910390f35b3480156107b857600080fd5b506107c1610f41565b6040518082815260200191505060405180910390f35b60606000806107e4610f47565b600960003373ffffffffffffffffffffffffffffffffffffffff1673ffffffffffffffffffffffffffffffffffffffff16815260200190815260200160002060606040519081016040529081600082018054600181600116156101000203166002900480601f0160208091040260200160405190810160405280929190818152602001828054600181600116156101000203166002900480156108c85780601f1061089d576101008083540402835291602001916108c8565b820191906000526020600020905b8154815290600101906020018083116108ab57829003601f168201915b5050505050815260200160018201548152602001600282015481525050905080600001518160200151826040015182925093509350935050909192565b60018054600181600116156101000203166002900480601f01602080910402602001604051908101604052809291908181526020018280546001816001161561010002031660029004801561099b5780601f106109705761010080835404028352916020019161099b565b820191906000526020600020905b81548152906001019060200180831161097e57829003601f168201915b505050505081565b606060008060001515600460009054906101000a900460ff1615151415156109c757fe5b6000809054906101000a900473ffffffffffffffffffffffffffffffffffffffff1673ffffffffffffffffffffffffffffffffffffffff163373ffffffffffffffffffffffffffffffffffffffff16141515610a2257600080fd5b6000600760009054906101000a900473ffffffffffffffffffffffffffffffffffffffff1690508073ffffffffffffffffffffffffffffffffffffffff166108fc3073ffffffffffffffffffffffffffffffffffffffff16319081150290604051600060405180830381858888f19350505050158015610aa6573d6000803e3d6000fd5b506001600460006101000a81548160ff021916908315150217905550610aca610f47565b600960008373ffffffffffffffffffffffffffffffffffffffff1673ffffffffffffffffffffffffffffffffffffffff16815260200190815260200160002060606040519081016040529081600082018054600181600116156101000203166002900480601f016020809104026020016040519081016040528092919081815260200182805460018160011615610100020316600290048015610bae5780601f10610b8357610100808354040283529160200191610bae565b820191906000526020600020905b815481529060010190602001808311610b9157829003601f168201915b505050505081526020016001820154815260200160028201548152505090508060000151816020015182604001518292509450945094505050909192565b6000801515600460009054906101000a900460ff161515141515610c0c57fe5b6000809054906101000a900473ffffffffffffffffffffffffffffffffffffffff1673ffffffffffffffffffffffffffffffffffffffff163373ffffffffffffffffffffffffffffffffffffffff1614151515610c6857600080fd5b60606040519081016040528084815260200183815260200142815250600960008673ffffffffffffffffffffffffffffffffffffffff1673ffffffffffffffffffffffffffffffffffffffff1681526020019081526020016000206000820151816000019080519060200190610cdf929190610f69565b506020820151816001015560408201518160020155905050600854821315610d4a578160088190555083600760006101000a81548173ffffffffffffffffffffffffffffffffffffffff021916908373ffffffffffffffffffffffffffffffffffffffff1602179055505b600190509392505050565b60028054600181600116156101000203166002900480601f016020809104026020016040519081016040528092919081815260200182805460018160011615610100020316600290048015610deb5780601f10610dc057610100808354040283529160200191610deb565b820191906000526020600020905b815481529060010190602001808311610dce57829003601f168201915b505050505081565b600460009054906101000a900460ff1681565b600083111515610e1257fe5b6003543410151515610e2357600080fd5b336000806101000a81548173ffffffffffffffffffffffffffffffffffffffff021916908373ffffffffffffffffffffffffffffffffffffffff1602179055508460019080519060200190610e79929190610fe9565b508360029080519060200190610e90929190610fe9565b50826003819055508160059080519060200190610eae929190610fe9565b508060069080519060200190610ec5929190610fe9565b5060006008819055506000600460006101000a81548160ff0219169083151502179055505050505050565b600760009054906101000a900473ffffffffffffffffffffffffffffffffffffffff1681565b6000809054906101000a900473ffffffffffffffffffffffffffffffffffffffff1681565b60035481565b60085481565b6060604051908101604052806060815260200160008152602001600081525090565b828054600181600116156101000203166002900490600052602060002090601f016020900481019282601f10610faa57805160ff1916838001178555610fd8565b82800160010185558215610fd8579182015b82811115610fd7578251825591602001919060010190610fbc565b5b509050610fe59190611069565b5090565b828054600181600116156101000203166002900490600052602060002090601f016020900481019282601f1061102a57805160ff1916838001178555611058565b82800160010185558215611058579182015b8281111561105757825182559160200191906001019061103c565b5b5090506110659190611069565b5090565b61108b91905b8082111561108757600081600090555060010161106f565b5090565b9056fea165627a7a723058203a11d6ac73fa746944354f5a569ac732f0b70aa99548c6306b8bb84701b71fe20029",
  "source": "pragma solidity ^0.5.0;\n\ncontract Daggle {\n\n  struct Submission {\n    string ipfsPath;\n    int256 accuracy;\n    uint timestamp;\n  }\n\n  address public problemOwner;\n  string public title;\n  string public description;\n  uint public rewardAmount;\n  bool public isFinished;\n  string trainDataIpfsPath;\n  string testDataIpfsPath;\n\n  address public currentLeader;\n  int256 public bestAccuracy;\n\n  mapping (address => Submission) submissions;\n\n  // Constructor\n  constructor() public {\n  }\n\n  function createCompetition(\n    string memory _title, \n    string memory _description, \n    uint _rewardAmount, \n    string memory _trainDataIpfsPath, \n    string memory _testDataIpfsPath\n  ) public payable {\n    assert(_rewardAmount > 0);\n    require(msg.value >= rewardAmount);\n\n    problemOwner = msg.sender;\n    title = _title;\n    description = _description;\n    rewardAmount = _rewardAmount;\n    trainDataIpfsPath = _trainDataIpfsPath;\n    testDataIpfsPath = _testDataIpfsPath;\n    bestAccuracy = 0;\n    isFinished = false;\n  }\n\n  function submit(address _competitor, string memory _ipfsPath, int256 _accuracy) public returns (bool) {\n    assert(isFinished == false);\n\n    require(msg.sender != problemOwner);\n\n    submissions[_competitor] = Submission(_ipfsPath, _accuracy, block.timestamp);\n\n    if (_accuracy > bestAccuracy) {\n      bestAccuracy = _accuracy;\n      currentLeader = _competitor;\n    }\n\n    return true;\n\n  }\n\n  function getSubmission() public view returns (string memory, int256, uint) {\n    Submission memory mySubmission = submissions[msg.sender];\n    return (mySubmission.ipfsPath, mySubmission.accuracy, mySubmission.timestamp);\n  }\n\n  // function evaluate() public returns (Submission) {\n  //   //TODO\n  // }\n\n  function finalize() public returns (string memory, int256, uint) {\n      // Make sure contract is not terminated\n      assert(isFinished == false);\n\n      require(msg.sender == problemOwner);\n      \n      // cast address to address payable\n      address payable winner = address(uint160(currentLeader));\n\n      winner.transfer(address(this).balance);\n      \n      isFinished = true;\n\n      Submission memory bestSubmission = submissions[winner];\n\n      return (bestSubmission.ipfsPath, bestSubmission.accuracy, bestSubmission.timestamp);\n    }\n\n}",
  "sourcePath": "/Users/leon/Files/bdt/MSBD6000D/project/pet-shop-tutorial/contracts/Daggle.sol",
  "compiler": {
    "name": "solc",
    "version": "0.5.0+commit.1d4f565a.Emscripten.clang"
  },
  "schemaVersion": "3.0.9",
  "updatedAt": "2019-05-08T10:56:39.174Z",
  "devdoc": {
    "methods": {}
  },
  "userdoc": {
    "methods": {}
  }
}