{
  "contractName": "Daggle",
  "abi": [
    {
      "constant": true,
      "inputs": [],
      "name": "title",
      "outputs": [
        {
          "name": "",
          "type": "string"
        }
      ],
      "payable": false,
      "stateMutability": "view",
      "type": "function"
    },
    {
      "constant": true,
      "inputs": [],
      "name": "description",
      "outputs": [
        {
          "name": "",
          "type": "string"
        }
      ],
      "payable": false,
      "stateMutability": "view",
      "type": "function"
    },
    {
      "constant": true,
      "inputs": [],
      "name": "isFinished",
      "outputs": [
        {
          "name": "",
          "type": "bool"
        }
      ],
      "payable": false,
      "stateMutability": "view",
      "type": "function"
    },
    {
      "constant": true,
      "inputs": [],
      "name": "currentLeader",
      "outputs": [
        {
          "name": "",
          "type": "address"
        }
      ],
      "payable": false,
      "stateMutability": "view",
      "type": "function"
    },
    {
      "constant": true,
      "inputs": [],
      "name": "problemOwner",
      "outputs": [
        {
          "name": "",
          "type": "address"
        }
      ],
      "payable": false,
      "stateMutability": "view",
      "type": "function"
    },
    {
      "constant": true,
      "inputs": [],
      "name": "rewardAmount",
      "outputs": [
        {
          "name": "",
          "type": "uint256"
        }
      ],
      "payable": false,
      "stateMutability": "view",
      "type": "function"
    },
    {
      "constant": true,
      "inputs": [],
      "name": "bestAccuracy",
      "outputs": [
        {
          "name": "",
          "type": "int256"
        }
      ],
      "payable": false,
      "stateMutability": "view",
      "type": "function"
    },
    {
      "inputs": [
        {
          "name": "_title",
          "type": "string"
        },
        {
          "name": "_description",
          "type": "string"
        },
        {
          "name": "_rewardAmount",
          "type": "uint256"
        },
        {
          "name": "_trainDataIpfsPath",
          "type": "string"
        },
        {
          "name": "_testDataIpfsPath",
          "type": "string"
        }
      ],
      "payable": true,
      "stateMutability": "payable",
      "type": "constructor"
    },
    {
      "constant": false,
      "inputs": [],
      "name": "payReward",
      "outputs": [],
      "payable": true,
      "stateMutability": "payable",
      "type": "function"
    },
    {
      "constant": false,
      "inputs": [
        {
          "name": "_competitor",
          "type": "address"
        },
        {
          "name": "_ipfsPath",
          "type": "string"
        },
        {
          "name": "_accuracy",
          "type": "int256"
        }
      ],
      "name": "submit",
      "outputs": [
        {
          "name": "",
          "type": "bool"
        }
      ],
      "payable": false,
      "stateMutability": "nonpayable",
      "type": "function"
    },
    {
      "constant": true,
      "inputs": [],
      "name": "getSubmission",
      "outputs": [
        {
          "name": "",
          "type": "string"
        },
        {
          "name": "",
          "type": "int256"
        },
        {
          "name": "",
          "type": "uint256"
        }
      ],
      "payable": false,
      "stateMutability": "view",
      "type": "function"
    },
    {
      "constant": false,
      "inputs": [],
      "name": "finalize",
      "outputs": [
        {
          "name": "",
          "type": "string"
        },
        {
          "name": "",
          "type": "int256"
        },
        {
          "name": "",
          "type": "uint256"
        }
      ],
      "payable": false,
      "stateMutability": "nonpayable",
      "type": "function"
    }
  ],
  "bytecode": "0x608060405260405162000f5038038062000f50833981018060405260a08110156200002957600080fd5b8101908080516401000000008111156200004257600080fd5b828101905060208101848111156200005957600080fd5b81518560018202830111640100000000821117156200007757600080fd5b505092919060200180516401000000008111156200009457600080fd5b82810190506020810184811115620000ab57600080fd5b8151856001820283011164010000000082111715620000c957600080fd5b5050929190602001805190602001909291908051640100000000811115620000f057600080fd5b828101905060208101848111156200010757600080fd5b81518560018202830111640100000000821117156200012557600080fd5b505092919060200180516401000000008111156200014257600080fd5b828101905060208101848111156200015957600080fd5b81518560018202830111640100000000821117156200017757600080fd5b50509291905050506000831115156200018c57fe5b336000806101000a81548173ffffffffffffffffffffffffffffffffffffffff021916908373ffffffffffffffffffffffffffffffffffffffff1602179055508460019080519060200190620001e492919062000265565b508360029080519060200190620001fd92919062000265565b508260038190555081600590805190602001906200021d92919062000265565b5080600690805190602001906200023692919062000265565b5060006008819055506000600460006101000a81548160ff021916908315150217905550505050505062000314565b828054600181600116156101000203166002900490600052602060002090601f016020900481019282601f10620002a857805160ff1916838001178555620002d9565b82800160010185558215620002d9579182015b82811115620002d8578251825591602001919060010190620002bb565b5b509050620002e89190620002ec565b5090565b6200031191905b808211156200030d576000816000905550600101620002f3565b5090565b90565b610c2c80620003246000396000f3fe6080604052600436106100af576000357c0100000000000000000000000000000000000000000000000000000000900463ffffffff1680632d160693146100b45780634a79d50c146101525780634bb278f3146101e257806353a9e837146102805780637284e4161461038a5780637842a3a41461041a5780637b35296214610424578063ac4bd53a14610453578063b45d80b2146104aa578063f7b2a7be14610501578063faacc8cc1461052c575b600080fd5b3480156100c057600080fd5b506100c9610557565b6040518080602001848152602001838152602001828103825285818151815260200191508051906020019080838360005b838110156101155780820151818401526020810190506100fa565b50505050905090810190601f1680156101425780820380516001836020036101000a031916815260200191505b5094505050505060405180910390f35b34801561015e57600080fd5b50610167610685565b6040518080602001828103825283818151815260200191508051906020019080838360005b838110156101a757808201518184015260208101905061018c565b50505050905090810190601f1680156101d45780820380516001836020036101000a031916815260200191505b509250505060405180910390f35b3480156101ee57600080fd5b506101f7610723565b6040518080602001848152602001838152602001828103825285818151815260200191508051906020019080838360005b83811015610243578082015181840152602081019050610228565b50505050905090810190601f1680156102705780820380516001836020036101000a031916815260200191505b5094505050505060405180910390f35b34801561028c57600080fd5b50610370600480360360608110156102a357600080fd5b81019080803573ffffffffffffffffffffffffffffffffffffffff169060200190929190803590602001906401000000008111156102e057600080fd5b8201836020820111156102f257600080fd5b8035906020019184600183028401116401000000008311171561031457600080fd5b91908080601f016020809104026020016040519081016040528093929190818152602001838380828437600081840152601f19601f82011690508083019250505050505050919291929080359060200190929190505050610911565b604051808215151515815260200191505060405180910390f35b34801561039657600080fd5b5061039f610a1e565b6040518080602001828103825283818151815260200191508051906020019080838360005b838110156103df5780820151818401526020810190506103c4565b50505050905090810190601f16801561040c5780820380516001836020036101000a031916815260200191505b509250505060405180910390f35b610422610abc565b005b34801561043057600080fd5b50610439610acf565b604051808215151515815260200191505060405180910390f35b34801561045f57600080fd5b50610468610ae2565b604051808273ffffffffffffffffffffffffffffffffffffffff1673ffffffffffffffffffffffffffffffffffffffff16815260200191505060405180910390f35b3480156104b657600080fd5b506104bf610b08565b604051808273ffffffffffffffffffffffffffffffffffffffff1673ffffffffffffffffffffffffffffffffffffffff16815260200191505060405180910390f35b34801561050d57600080fd5b50610516610b2d565b6040518082815260200191505060405180910390f35b34801561053857600080fd5b50610541610b33565b6040518082815260200191505060405180910390f35b6060600080610564610b39565b600960003373ffffffffffffffffffffffffffffffffffffffff1673ffffffffffffffffffffffffffffffffffffffff16815260200190815260200160002060606040519081016040529081600082018054600181600116156101000203166002900480601f0160208091040260200160405190810160405280929190818152602001828054600181600116156101000203166002900480156106485780601f1061061d57610100808354040283529160200191610648565b820191906000526020600020905b81548152906001019060200180831161062b57829003601f168201915b5050505050815260200160018201548152602001600282015481525050905080600001518160200151826040015182925093509350935050909192565b60018054600181600116156101000203166002900480601f01602080910402602001604051908101604052809291908181526020018280546001816001161561010002031660029004801561071b5780601f106106f05761010080835404028352916020019161071b565b820191906000526020600020905b8154815290600101906020018083116106fe57829003601f168201915b505050505081565b606060008060001515600460009054906101000a900460ff16151514151561074757fe5b6000600760009054906101000a900473ffffffffffffffffffffffffffffffffffffffff1690508073ffffffffffffffffffffffffffffffffffffffff166108fc3073ffffffffffffffffffffffffffffffffffffffff16319081150290604051600060405180830381858888f193505050501580156107cb573d6000803e3d6000fd5b506001600460006101000a81548160ff0219169083151502179055506107ef610b39565b600960008373ffffffffffffffffffffffffffffffffffffffff1673ffffffffffffffffffffffffffffffffffffffff16815260200190815260200160002060606040519081016040529081600082018054600181600116156101000203166002900480601f0160208091040260200160405190810160405280929190818152602001828054600181600116156101000203166002900480156108d35780601f106108a8576101008083540402835291602001916108d3565b820191906000526020600020905b8154815290600101906020018083116108b657829003601f168201915b505050505081526020016001820154815260200160028201548152505090508060000151816020015182604001518292509450945094505050909192565b6000801515600460009054906101000a900460ff16151514151561093157fe5b60606040519081016040528084815260200183815260200142815250600960008673ffffffffffffffffffffffffffffffffffffffff1673ffffffffffffffffffffffffffffffffffffffff16815260200190815260200160002060008201518160000190805190602001906109a8929190610b5b565b506020820151816001015560408201518160020155905050600854821315610a13578160088190555083600760006101000a81548173ffffffffffffffffffffffffffffffffffffffff021916908373ffffffffffffffffffffffffffffffffffffffff1602179055505b600190509392505050565b60028054600181600116156101000203166002900480601f016020809104026020016040519081016040528092919081815260200182805460018160011615610100020316600290048015610ab45780601f10610a8957610100808354040283529160200191610ab4565b820191906000526020600020905b815481529060010190602001808311610a9757829003601f168201915b505050505081565b6003543410151515610acd57600080fd5b565b600460009054906101000a900460ff1681565b600760009054906101000a900473ffffffffffffffffffffffffffffffffffffffff1681565b6000809054906101000a900473ffffffffffffffffffffffffffffffffffffffff1681565b60035481565b60085481565b6060604051908101604052806060815260200160008152602001600081525090565b828054600181600116156101000203166002900490600052602060002090601f016020900481019282601f10610b9c57805160ff1916838001178555610bca565b82800160010185558215610bca579182015b82811115610bc9578251825591602001919060010190610bae565b5b509050610bd79190610bdb565b5090565b610bfd91905b80821115610bf9576000816000905550600101610be1565b5090565b9056fea165627a7a723058203c9c0120331c335973d0044a196346f46ce11658713e3e9e520f616a0fc4d63e0029",
  "source": "pragma solidity ^0.5.0;\n\ncontract Daggle {\n\n  struct Submission {\n    string ipfsPath;\n    int256 accuracy;\n    uint timestamp;\n  }\n\n  address public problemOwner;\n  string public title;\n  string public description;\n  uint public rewardAmount;\n  bool public isFinished;\n  string trainDataIpfsPath;\n  string testDataIpfsPath;\n\n  address public currentLeader;\n  int256 public bestAccuracy;\n\n  mapping (address => Submission) submissions;\n\n  // Constructor\n  constructor(string memory _title, string memory _description, uint _rewardAmount, string memory _trainDataIpfsPath, string memory _testDataIpfsPath) public payable {\n    assert(_rewardAmount > 0);\n    problemOwner = msg.sender;\n    title = _title;\n    description = _description;\n    rewardAmount = _rewardAmount;\n    trainDataIpfsPath = _trainDataIpfsPath;\n    testDataIpfsPath = _testDataIpfsPath;\n    bestAccuracy = 0;\n    isFinished = false;\n  }\n\n  function payReward() public payable {\n    require(msg.value >= rewardAmount);\n  }\n\n  function submit(address _competitor, string memory _ipfsPath, int256 _accuracy) public returns (bool) {\n    assert(isFinished == false);\n\n    submissions[_competitor] = Submission(_ipfsPath, _accuracy, block.timestamp);\n\n    if (_accuracy > bestAccuracy) {\n      bestAccuracy = _accuracy;\n      currentLeader = _competitor;\n    }\n\n    return true;\n\n  }\n\n  function getSubmission() public view returns (string memory, int256, uint) {\n    Submission memory mySubmission = submissions[msg.sender];\n    return (mySubmission.ipfsPath, mySubmission.accuracy, mySubmission.timestamp);\n  }\n\n  // function evaluate() public returns (Submission) {\n  //   //TODO\n  // }\n\n  function finalize() public returns (string memory, int256, uint) {\n      // Make sure contract is not terminated\n      assert(isFinished == false);\n      \n      // cast address to address payable\n      address payable winner = address(uint160(currentLeader));\n\n      winner.transfer(address(this).balance);\n      \n      isFinished = true;\n\n      Submission memory bestSubmission = submissions[winner];\n\n      return (bestSubmission.ipfsPath, bestSubmission.accuracy, bestSubmission.timestamp);\n    }\n\n}",
  "sourcePath": "/Users/leon/Files/bdt/MSBD6000D/project/pet-shop-tutorial/contracts/Daggle.sol",
  "compiler": {
    "name": "solc",
    "version": "0.5.0+commit.1d4f565a.Emscripten.clang"
  },
  "schemaVersion": "3.0.9",
  "updatedAt": "2019-05-07T07:27:26.873Z",
  "devdoc": {
    "methods": {}
  },
  "userdoc": {
    "methods": {}
  }
}