{
  "contractName": "Daggle",
  "abi": [
    {
      "constant": true,
      "inputs": [
        {
          "name": "",
          "type": "uint256"
        }
      ],
      "name": "competitions",
      "outputs": [
        {
          "name": "id",
          "type": "uint256"
        },
        {
          "name": "problemOwner",
          "type": "address"
        },
        {
          "name": "title",
          "type": "string"
        },
        {
          "name": "description",
          "type": "string"
        },
        {
          "name": "rewardAmount",
          "type": "uint256"
        },
        {
          "name": "trainDataPath",
          "type": "string"
        },
        {
          "name": "testDataPath",
          "type": "string"
        },
        {
          "name": "currentLeader",
          "type": "address"
        },
        {
          "name": "bestAccuracy",
          "type": "int256"
        },
        {
          "name": "isFinished",
          "type": "bool"
        }
      ],
      "payable": false,
      "stateMutability": "view",
      "type": "function"
    },
    {
      "inputs": [],
      "payable": false,
      "stateMutability": "nonpayable",
      "type": "constructor"
    },
    {
      "constant": true,
      "inputs": [],
      "name": "getNumberOfCompetitions",
      "outputs": [
        {
          "name": "",
          "type": "uint256"
        }
      ],
      "payable": false,
      "stateMutability": "view",
      "type": "function"
    },
    {
      "constant": false,
      "inputs": [
        {
          "name": "_title",
          "type": "string"
        },
        {
          "name": "_description",
          "type": "string"
        },
        {
          "name": "_rewardAmount",
          "type": "uint256"
        },
        {
          "name": "_trainDataPath",
          "type": "string"
        },
        {
          "name": "_testDataPath",
          "type": "string"
        }
      ],
      "name": "createCompetition",
      "outputs": [],
      "payable": false,
      "stateMutability": "nonpayable",
      "type": "function"
    },
    {
      "constant": false,
      "inputs": [
        {
          "name": "competitionId",
          "type": "uint256"
        },
        {
          "name": "_competitor",
          "type": "address"
        },
        {
          "name": "_ipfsPath",
          "type": "string"
        },
        {
          "name": "_accuracy",
          "type": "int256"
        }
      ],
      "name": "submit",
      "outputs": [
        {
          "name": "",
          "type": "bool"
        }
      ],
      "payable": false,
      "stateMutability": "nonpayable",
      "type": "function"
    },
    {
      "constant": true,
      "inputs": [
        {
          "name": "competitionId",
          "type": "uint256"
        }
      ],
      "name": "getSubmission",
      "outputs": [
        {
          "name": "",
          "type": "string"
        },
        {
          "name": "",
          "type": "int256"
        },
        {
          "name": "",
          "type": "uint256"
        }
      ],
      "payable": false,
      "stateMutability": "view",
      "type": "function"
    },
    {
      "constant": false,
      "inputs": [
        {
          "name": "competitionId",
          "type": "uint256"
        }
      ],
      "name": "endCompetition",
      "outputs": [
        {
          "name": "",
          "type": "string"
        },
        {
          "name": "",
          "type": "int256"
        },
        {
          "name": "",
          "type": "uint256"
        }
      ],
      "payable": true,
      "stateMutability": "payable",
      "type": "function"
    }
  ],
  "bytecode": "0x608060405234801561001057600080fd5b506114b7806100206000396000f3fe608060405260043610610078576000357c0100000000000000000000000000000000000000000000000000000000900463ffffffff1680633e8686cc1461007d578063754aebe71461013f57806385b8a325146101f45780639f6828d914610308578063a1fdb59814610586578063d003c9691461081d575b600080fd5b34801561008957600080fd5b506100b6600480360360208110156100a057600080fd5b8101908080359060200190929190505050610848565b6040518080602001848152602001838152602001828103825285818151815260200191508051906020019080838360005b838110156101025780820151818401526020810190506100e7565b50505050905090810190601f16801561012f5780820380516001836020036101000a031916815260200191505b5094505050505060405180910390f35b61016b6004803603602081101561015557600080fd5b81019080803590602001909291905050506109bb565b6040518080602001848152602001838152602001828103825285818151815260200191508051906020019080838360005b838110156101b757808201518184015260208101905061019c565b50505050905090810190601f1680156101e45780820380516001836020036101000a031916815260200191505b5094505050505060405180910390f35b34801561020057600080fd5b506102ee6004803603608081101561021757600080fd5b8101908080359060200190929190803573ffffffffffffffffffffffffffffffffffffffff1690602001909291908035906020019064010000000081111561025e57600080fd5b82018360208201111561027057600080fd5b8035906020019184600183028401116401000000008311171561029257600080fd5b91908080601f016020809104026020016040519081016040528093929190818152602001838380828437600081840152601f19601f82011690508083019250505050505050919291929080359060200190929190505050610c55565b604051808215151515815260200191505060405180910390f35b34801561031457600080fd5b506103416004803603602081101561032b57600080fd5b8101908080359060200190929190505050610e10565b604051808b81526020018a73ffffffffffffffffffffffffffffffffffffffff1673ffffffffffffffffffffffffffffffffffffffff168152602001806020018060200189815260200180602001806020018873ffffffffffffffffffffffffffffffffffffffff1673ffffffffffffffffffffffffffffffffffffffff1681526020018781526020018615151515815260200185810385528d818151815260200191508051906020019080838360005b8381101561040d5780820151818401526020810190506103f2565b50505050905090810190601f16801561043a5780820380516001836020036101000a031916815260200191505b5085810384528c818151815260200191508051906020019080838360005b83811015610473578082015181840152602081019050610458565b50505050905090810190601f1680156104a05780820380516001836020036101000a031916815260200191505b5085810383528a818151815260200191508051906020019080838360005b838110156104d95780820151818401526020810190506104be565b50505050905090810190601f1680156105065780820380516001836020036101000a031916815260200191505b50858103825289818151815260200191508051906020019080838360005b8381101561053f578082015181840152602081019050610524565b50505050905090810190601f16801561056c5780820380516001836020036101000a031916815260200191505b509e50505050505050505050505050505060405180910390f35b34801561059257600080fd5b5061081b600480360360a08110156105a957600080fd5b81019080803590602001906401000000008111156105c657600080fd5b8201836020820111156105d857600080fd5b803590602001918460018302840111640100000000831117156105fa57600080fd5b91908080601f016020809104026020016040519081016040528093929190818152602001838380828437600081840152601f19601f8201169050808301925050505050505091929192908035906020019064010000000081111561065d57600080fd5b82018360208201111561066f57600080fd5b8035906020019184600183028401116401000000008311171561069157600080fd5b91908080601f016020809104026020016040519081016040528093929190818152602001838380828437600081840152601f19601f82011690508083019250505050505050919291929080359060200190929190803590602001906401000000008111156106fe57600080fd5b82018360208201111561071057600080fd5b8035906020019184600183028401116401000000008311171561073257600080fd5b91908080601f016020809104026020016040519081016040528093929190818152602001838380828437600081840152601f19601f8201169050808301925050505050505091929192908035906020019064010000000081111561079557600080fd5b8201836020820111156107a757600080fd5b803590602001918460018302840111640100000000831117156107c957600080fd5b91908080601f016020809104026020016040519081016040528093929190818152602001838380828437600081840152601f19601f820116905080830192505050505050509192919290505050611120565b005b34801561082957600080fd5b50610832611336565b6040518082815260200191505060405180910390f35b606060008060008410158015610862575060008054905084105b151561086d57600080fd5b6000808581548110151561087d57fe5b90600052602060002090600b02019050610895611342565b8160070160003373ffffffffffffffffffffffffffffffffffffffff1673ffffffffffffffffffffffffffffffffffffffff16815260200190815260200160002060606040519081016040529081600082018054600181600116156101000203166002900480601f01602080910402602001604051908101604052809291908181526020018280546001816001161561010002031660029004801561097b5780601f106109505761010080835404028352916020019161097b565b820191906000526020600020905b81548152906001019060200180831161095e57829003601f168201915b5050505050815260200160018201548152602001600282015481525050905080600001518160200151826040015182925094509450945050509193909250565b6060600080600084101580156109d5575060008054905084105b15156109e057600080fd5b600080858154811015156109f057fe5b90600052602060002090600b020190508060010160009054906101000a900473ffffffffffffffffffffffffffffffffffffffff1673ffffffffffffffffffffffffffffffffffffffff163373ffffffffffffffffffffffffffffffffffffffff16141515610a5e57600080fd5b80600401543410151515610a7157600080fd5b6000151581600a0160009054906101000a900460ff161515141515610a9557600080fd5b60008160080160009054906101000a900473ffffffffffffffffffffffffffffffffffffffff1690508073ffffffffffffffffffffffffffffffffffffffff166108fc83600401549081150290604051600060405180830381858888f19350505050158015610b08573d6000803e3d6000fd5b50600182600a0160006101000a81548160ff021916908315150217905550610b2e611342565b8260070160008373ffffffffffffffffffffffffffffffffffffffff1673ffffffffffffffffffffffffffffffffffffffff16815260200190815260200160002060606040519081016040529081600082018054600181600116156101000203166002900480601f016020809104026020016040519081016040528092919081815260200182805460018160011615610100020316600290048015610c145780601f10610be957610100808354040283529160200191610c14565b820191906000526020600020905b815481529060010190602001808311610bf757829003601f168201915b505050505081526020016001820154815260200160028201548152505090508060000151816020015182604001518292509550955095505050509193909250565b6000808510158015610c6b575060008054905085105b1515610c7657600080fd5b60008086815481101515610c8657fe5b90600052602060002090600b020190508060010160009054906101000a900473ffffffffffffffffffffffffffffffffffffffff1673ffffffffffffffffffffffffffffffffffffffff163373ffffffffffffffffffffffffffffffffffffffff1614151515610cf557600080fd5b6000151581600a0160009054906101000a900460ff161515141515610d1957600080fd5b606060405190810160405280858152602001848152602001428152508160070160008773ffffffffffffffffffffffffffffffffffffffff1673ffffffffffffffffffffffffffffffffffffffff1681526020019081526020016000206000820151816000019080519060200190610d92929190611364565b5060208201518160010155604082015181600201559050508060090154831315610e0357828160090181905550848160080160006101000a81548173ffffffffffffffffffffffffffffffffffffffff021916908373ffffffffffffffffffffffffffffffffffffffff1602179055505b6001915050949350505050565b600081815481101515610e1f57fe5b90600052602060002090600b02016000915090508060000154908060010160009054906101000a900473ffffffffffffffffffffffffffffffffffffffff1690806002018054600181600116156101000203166002900480601f016020809104026020016040519081016040528092919081815260200182805460018160011615610100020316600290048015610ef75780601f10610ecc57610100808354040283529160200191610ef7565b820191906000526020600020905b815481529060010190602001808311610eda57829003601f168201915b505050505090806003018054600181600116156101000203166002900480601f016020809104026020016040519081016040528092919081815260200182805460018160011615610100020316600290048015610f955780601f10610f6a57610100808354040283529160200191610f95565b820191906000526020600020905b815481529060010190602001808311610f7857829003601f168201915b505050505090806004015490806005018054600181600116156101000203166002900480601f0160208091040260200160405190810160405280929190818152602001828054600181600116156101000203166002900480156110395780601f1061100e57610100808354040283529160200191611039565b820191906000526020600020905b81548152906001019060200180831161101c57829003601f168201915b505050505090806006018054600181600116156101000203166002900480601f0160208091040260200160405190810160405280929190818152602001828054600181600116156101000203166002900480156110d75780601f106110ac576101008083540402835291602001916110d7565b820191906000526020600020905b8154815290600101906020018083116110ba57829003601f168201915b5050505050908060080160009054906101000a900473ffffffffffffffffffffffffffffffffffffffff169080600901549080600a0160009054906101000a900460ff1690508a565b60008311151561112c57fe5b6111346113e4565b60008054905081600001818152505033816020019073ffffffffffffffffffffffffffffffffffffffff16908173ffffffffffffffffffffffffffffffffffffffff168152505085816040018190525084816060018190525083816080018181525050828160a00181905250818160c001819052506000816101200190151590811515815250506000819080600181540180825580915050906001820390600052602060002090600b0201600090919290919091506000820151816000015560208201518160010160006101000a81548173ffffffffffffffffffffffffffffffffffffffff021916908373ffffffffffffffffffffffffffffffffffffffff1602179055506040820151816002019080519060200190611256929190611364565b506060820151816003019080519060200190611273929190611364565b506080820151816004015560a082015181600501908051906020019061129a929190611364565b5060c08201518160060190805190602001906112b7929190611364565b5060e08201518160080160006101000a81548173ffffffffffffffffffffffffffffffffffffffff021916908373ffffffffffffffffffffffffffffffffffffffff160217905550610100820151816009015561012082015181600a0160006101000a81548160ff021916908315150217905550505050505050505050565b60008080549050905090565b6060604051908101604052806060815260200160008152602001600081525090565b828054600181600116156101000203166002900490600052602060002090601f016020900481019282601f106113a557805160ff19168380011785556113d3565b828001600101855582156113d3579182015b828111156113d25782518255916020019190600101906113b7565b5b5090506113e09190611466565b5090565b6101406040519081016040528060008152602001600073ffffffffffffffffffffffffffffffffffffffff1681526020016060815260200160608152602001600081526020016060815260200160608152602001600073ffffffffffffffffffffffffffffffffffffffff168152602001600081526020016000151581525090565b61148891905b8082111561148457600081600090555060010161146c565b5090565b9056fea165627a7a7230582008f22c9e499426321b448fda82efa14f9961624935be0a2a59d2f861aade821d0029",
  "source": "pragma solidity ^0.5.0;\r\n\r\ncontract Daggle {\r\n\r\n  struct Competition {\r\n    uint id;\r\n    address problemOwner;\r\n    string title;\r\n    string description;\r\n    uint rewardAmount;\r\n    string trainDataPath;\r\n    string testDataPath;\r\n    mapping (address => Submission) submissions;\r\n    address currentLeader;\r\n    int256 bestAccuracy;\r\n    bool isFinished;\r\n  }\r\n\r\n  struct Submission {\r\n    string dataPath;\r\n    int256 accuracy;\r\n    uint timestamp;\r\n  }\r\n\r\n  Competition[] public competitions;\r\n\r\n  // Constructor\r\n  constructor() public {\r\n\r\n  }\r\n\r\n  function getNumberOfCompetitions() public view returns (uint){\r\n    return competitions.length;\r\n  }\r\n\r\n  function createCompetition (\r\n    string memory _title,\r\n    string memory _description,\r\n    uint _rewardAmount,\r\n    string memory _trainDataPath,\r\n    string memory _testDataPath\r\n  ) public {\r\n\r\n    assert(_rewardAmount > 0);\r\n    // require(msg.value >= _rewardAmount);\r\n\r\n    Competition memory newCompetition;\r\n    newCompetition.id = competitions.length;\r\n    newCompetition.problemOwner= msg.sender;\r\n    newCompetition.title = _title;\r\n    newCompetition.description = _description;\r\n    newCompetition.rewardAmount = _rewardAmount;\r\n    newCompetition.trainDataPath = _trainDataPath;\r\n    newCompetition.testDataPath = _testDataPath;\r\n    newCompetition.isFinished = false;\r\n\r\n    competitions.push(newCompetition);\r\n  }\r\n\r\n  // function getCompetition(uint id) public returns (Competition memory) {\r\n  //   return competitions[id];\r\n  // }\r\n\r\n  function submit(uint competitionId, address _competitor, string memory _ipfsPath, int256 _accuracy) public returns (bool) {\r\n\r\n    require(competitionId >= 0 && competitionId < competitions.length);\r\n\r\n    Competition storage competition = competitions[competitionId];\r\n\r\n    require(msg.sender != competition.problemOwner);\r\n    require(competition.isFinished == false);\r\n\r\n    competition.submissions[_competitor] = Submission(_ipfsPath, _accuracy, block.timestamp);\r\n\r\n    if (_accuracy > competition.bestAccuracy) {\r\n      competition.bestAccuracy = _accuracy;\r\n      competition.currentLeader = _competitor;\r\n    }\r\n\r\n    return true;\r\n  }\r\n\r\n  function getSubmission(uint competitionId) public view returns (string memory, int256, uint) {\r\n    require(competitionId >= 0 && competitionId < competitions.length);\r\n\r\n    Competition storage competition = competitions[competitionId];\r\n    Submission memory mySubmission = competition.submissions[msg.sender];\r\n    return (mySubmission.dataPath, mySubmission.accuracy, mySubmission.timestamp);\r\n  }\r\n\r\n  // function evaluate() public returns (Submission) {\r\n  //   //TODO\r\n  // }\r\n\r\n  function endCompetition(uint competitionId) public payable returns (string memory, int256, uint) {\r\n\r\n      require(competitionId >= 0 && competitionId < competitions.length);\r\n\r\n      Competition storage competition = competitions[competitionId];\r\n\r\n      require(msg.sender == competition.problemOwner);\r\n      require(msg.value >= competition.rewardAmount);\r\n      require(competition.isFinished == false);\r\n\r\n      // cast address to address payable\r\n      address payable winner = address(uint160(competition.currentLeader));\r\n\r\n      winner.transfer(competition.rewardAmount);\r\n\r\n      competition.isFinished = true;\r\n\r\n      Submission memory bestSubmission = competition.submissions[winner];\r\n\r\n      return (bestSubmission.dataPath, bestSubmission.accuracy, bestSubmission.timestamp);\r\n    }\r\n\r\n}\r\n",
  "sourcePath": "C:/Users/user/Desktop/blockchain-project/contracts/Daggle.sol",
  "compiler": {
    "name": "solc",
    "version": "0.5.0+commit.1d4f565a.Emscripten.clang"
  },
  "schemaVersion": "3.0.9",
  "updatedAt": "2019-05-08T16:23:28.767Z",
  "devdoc": {
    "methods": {}
  },
  "userdoc": {
    "methods": {}
  }
}