{
  "contractName": "Daggle",
  "abi": [
    {
      "constant": true,
      "inputs": [
        {
          "name": "",
          "type": "uint256"
        }
      ],
      "name": "competitions",
      "outputs": [
        {
          "name": "id",
          "type": "uint256"
        },
        {
          "name": "problemOwner",
          "type": "address"
        },
        {
          "name": "title",
          "type": "string"
        },
        {
          "name": "description",
          "type": "string"
        },
        {
          "name": "rewardAmount",
          "type": "uint256"
        },
        {
          "name": "trainDataPath",
          "type": "string"
        },
        {
          "name": "testDataPath",
          "type": "string"
        },
        {
          "name": "currentLeader",
          "type": "address"
        },
        {
          "name": "bestAccuracy",
          "type": "int256"
        },
        {
          "name": "isFinished",
          "type": "bool"
        }
      ],
      "payable": false,
      "stateMutability": "view",
      "type": "function"
    },
    {
      "inputs": [],
      "payable": false,
      "stateMutability": "nonpayable",
      "type": "constructor"
    },
    {
      "payable": true,
      "stateMutability": "payable",
      "type": "fallback"
    },
    {
      "constant": true,
      "inputs": [],
      "name": "getNumberOfCompetitions",
      "outputs": [
        {
          "name": "",
          "type": "uint256"
        }
      ],
      "payable": false,
      "stateMutability": "view",
      "type": "function"
    },
    {
      "constant": false,
      "inputs": [
        {
          "name": "_title",
          "type": "string"
        },
        {
          "name": "_description",
          "type": "string"
        },
        {
          "name": "_rewardAmount",
          "type": "uint256"
        },
        {
          "name": "_trainDataPath",
          "type": "string"
        },
        {
          "name": "_testDataPath",
          "type": "string"
        }
      ],
      "name": "createCompetition",
      "outputs": [],
      "payable": true,
      "stateMutability": "payable",
      "type": "function"
    },
    {
      "constant": false,
      "inputs": [
        {
          "name": "competitionId",
          "type": "uint256"
        },
        {
          "name": "_fileAfid",
          "type": "string"
        }
      ],
      "name": "submit",
      "outputs": [
        {
          "name": "",
          "type": "bool"
        }
      ],
      "payable": false,
      "stateMutability": "nonpayable",
      "type": "function"
    },
    {
      "constant": true,
      "inputs": [
        {
          "name": "competitionId",
          "type": "uint256"
        }
      ],
      "name": "getSubmission",
      "outputs": [
        {
          "name": "",
          "type": "string"
        },
        {
          "name": "",
          "type": "int256"
        },
        {
          "name": "",
          "type": "uint256"
        }
      ],
      "payable": false,
      "stateMutability": "view",
      "type": "function"
    },
    {
      "constant": false,
      "inputs": [
        {
          "name": "competitionId",
          "type": "uint256"
        }
      ],
      "name": "endCompetition",
      "outputs": [
        {
          "name": "",
          "type": "string"
        },
        {
          "name": "",
          "type": "int256"
        },
        {
          "name": "",
          "type": "uint256"
        }
      ],
      "payable": true,
      "stateMutability": "payable",
      "type": "function"
    }
  ],
  "bytecode": "0x608060405234801561001057600080fd5b5061145a806100206000396000f3fe608060405260043610610078576000357c0100000000000000000000000000000000000000000000000000000000900463ffffffff1680633e8686cc1461007a5780635d63f6c61461013c578063754aebe7146102265780639f6828d9146102db578063a1fdb59814610559578063d003c969146107e3575b005b34801561008657600080fd5b506100b36004803603602081101561009d57600080fd5b810190808035906020019092919050505061080e565b6040518080602001848152602001838152602001828103825285818151815260200191508051906020019080838360005b838110156100ff5780820151818401526020810190506100e4565b50505050905090810190601f16801561012c5780820380516001836020036101000a031916815260200191505b5094505050505060405180910390f35b34801561014857600080fd5b5061020c6004803603604081101561015f57600080fd5b81019080803590602001909291908035906020019064010000000081111561018657600080fd5b82018360208201111561019857600080fd5b803590602001918460018302840111640100000000831117156101ba57600080fd5b91908080601f016020809104026020016040519081016040528093929190818152602001838380828437600081840152601f19601f820116905080830192505050505050509192919290505050610981565b604051808215151515815260200191505060405180910390f35b6102526004803603602081101561023c57600080fd5b8101908080359060200190929190505050610b25565b6040518080602001848152602001838152602001828103825285818151815260200191508051906020019080838360005b8381101561029e578082015181840152602081019050610283565b50505050905090810190601f1680156102cb5780820380516001836020036101000a031916815260200191505b5094505050505060405180910390f35b3480156102e757600080fd5b50610314600480360360208110156102fe57600080fd5b8101908080359060200190929190505050610dbf565b604051808b81526020018a73ffffffffffffffffffffffffffffffffffffffff1673ffffffffffffffffffffffffffffffffffffffff168152602001806020018060200189815260200180602001806020018873ffffffffffffffffffffffffffffffffffffffff1673ffffffffffffffffffffffffffffffffffffffff1681526020018781526020018615151515815260200185810385528d818151815260200191508051906020019080838360005b838110156103e05780820151818401526020810190506103c5565b50505050905090810190601f16801561040d5780820380516001836020036101000a031916815260200191505b5085810384528c818151815260200191508051906020019080838360005b8381101561044657808201518184015260208101905061042b565b50505050905090810190601f1680156104735780820380516001836020036101000a031916815260200191505b5085810383528a818151815260200191508051906020019080838360005b838110156104ac578082015181840152602081019050610491565b50505050905090810190601f1680156104d95780820380516001836020036101000a031916815260200191505b50858103825289818151815260200191508051906020019080838360005b838110156105125780820151818401526020810190506104f7565b50505050905090810190601f16801561053f5780820380516001836020036101000a031916815260200191505b509e50505050505050505050505050505060405180910390f35b6107e1600480360360a081101561056f57600080fd5b810190808035906020019064010000000081111561058c57600080fd5b82018360208201111561059e57600080fd5b803590602001918460018302840111640100000000831117156105c057600080fd5b91908080601f016020809104026020016040519081016040528093929190818152602001838380828437600081840152601f19601f8201169050808301925050505050505091929192908035906020019064010000000081111561062357600080fd5b82018360208201111561063557600080fd5b8035906020019184600183028401116401000000008311171561065757600080fd5b91908080601f016020809104026020016040519081016040528093929190818152602001838380828437600081840152601f19601f82011690508083019250505050505050919291929080359060200190929190803590602001906401000000008111156106c457600080fd5b8201836020820111156106d657600080fd5b803590602001918460018302840111640100000000831117156106f857600080fd5b91908080601f016020809104026020016040519081016040528093929190818152602001838380828437600081840152601f19601f8201169050808301925050505050505091929192908035906020019064010000000081111561075b57600080fd5b82018360208201111561076d57600080fd5b8035906020019184600183028401116401000000008311171561078f57600080fd5b91908080601f016020809104026020016040519081016040528093929190818152602001838380828437600081840152601f19601f8201169050808301925050505050505091929192905050506110cf565b005b3480156107ef57600080fd5b506107f86112d9565b6040518082815260200191505060405180910390f35b606060008060008410158015610828575060008054905084105b151561083357600080fd5b6000808581548110151561084357fe5b90600052602060002090600b0201905061085b6112e5565b8160070160003373ffffffffffffffffffffffffffffffffffffffff1673ffffffffffffffffffffffffffffffffffffffff16815260200190815260200160002060606040519081016040529081600082018054600181600116156101000203166002900480601f0160208091040260200160405190810160405280929190818152602001828054600181600116156101000203166002900480156109415780601f1061091657610100808354040283529160200191610941565b820191906000526020600020905b81548152906001019060200180831161092457829003601f168201915b5050505050815260200160018201548152602001600282015481525050905080600001518160200151826040015182925094509450945050509193909250565b6000808310158015610997575060008054905083105b15156109a257600080fd5b600080848154811015156109b257fe5b90600052602060002090600b020190508060010160009054906101000a900473ffffffffffffffffffffffffffffffffffffffff1673ffffffffffffffffffffffffffffffffffffffff163373ffffffffffffffffffffffffffffffffffffffff1614151515610a2157600080fd5b6000151581600a0160009054906101000a900460ff161515141515610a4557600080fd5b60606040519081016040528084815260200160018152602001428152508160070160003373ffffffffffffffffffffffffffffffffffffffff1673ffffffffffffffffffffffffffffffffffffffff1681526020019081526020016000206000820151816000019080519060200190610abf929190611307565b506020820151816001015560408201518160020155905050338160080160006101000a81548173ffffffffffffffffffffffffffffffffffffffff021916908373ffffffffffffffffffffffffffffffffffffffff160217905550600191505092915050565b606060008060008410158015610b3f575060008054905084105b1515610b4a57600080fd5b60008085815481101515610b5a57fe5b90600052602060002090600b020190508060010160009054906101000a900473ffffffffffffffffffffffffffffffffffffffff1673ffffffffffffffffffffffffffffffffffffffff163373ffffffffffffffffffffffffffffffffffffffff16141515610bc857600080fd5b80600401543410151515610bdb57600080fd5b6000151581600a0160009054906101000a900460ff161515141515610bff57600080fd5b60008160080160009054906101000a900473ffffffffffffffffffffffffffffffffffffffff1690508073ffffffffffffffffffffffffffffffffffffffff166108fc83600401549081150290604051600060405180830381858888f19350505050158015610c72573d6000803e3d6000fd5b50600182600a0160006101000a81548160ff021916908315150217905550610c986112e5565b8260070160008373ffffffffffffffffffffffffffffffffffffffff1673ffffffffffffffffffffffffffffffffffffffff16815260200190815260200160002060606040519081016040529081600082018054600181600116156101000203166002900480601f016020809104026020016040519081016040528092919081815260200182805460018160011615610100020316600290048015610d7e5780601f10610d5357610100808354040283529160200191610d7e565b820191906000526020600020905b815481529060010190602001808311610d6157829003601f168201915b505050505081526020016001820154815260200160028201548152505090508060000151816020015182604001518292509550955095505050509193909250565b600081815481101515610dce57fe5b90600052602060002090600b02016000915090508060000154908060010160009054906101000a900473ffffffffffffffffffffffffffffffffffffffff1690806002018054600181600116156101000203166002900480601f016020809104026020016040519081016040528092919081815260200182805460018160011615610100020316600290048015610ea65780601f10610e7b57610100808354040283529160200191610ea6565b820191906000526020600020905b815481529060010190602001808311610e8957829003601f168201915b505050505090806003018054600181600116156101000203166002900480601f016020809104026020016040519081016040528092919081815260200182805460018160011615610100020316600290048015610f445780601f10610f1957610100808354040283529160200191610f44565b820191906000526020600020905b815481529060010190602001808311610f2757829003601f168201915b505050505090806004015490806005018054600181600116156101000203166002900480601f016020809104026020016040519081016040528092919081815260200182805460018160011615610100020316600290048015610fe85780601f10610fbd57610100808354040283529160200191610fe8565b820191906000526020600020905b815481529060010190602001808311610fcb57829003601f168201915b505050505090806006018054600181600116156101000203166002900480601f0160208091040260200160405190810160405280929190818152602001828054600181600116156101000203166002900480156110865780601f1061105b57610100808354040283529160200191611086565b820191906000526020600020905b81548152906001019060200180831161106957829003601f168201915b5050505050908060080160009054906101000a900473ffffffffffffffffffffffffffffffffffffffff169080600901549080600a0160009054906101000a900460ff1690508a565b6110d7611387565b60008054905081600001818152505033816020019073ffffffffffffffffffffffffffffffffffffffff16908173ffffffffffffffffffffffffffffffffffffffff168152505085816040018190525084816060018190525083816080018181525050828160a00181905250818160c001819052506000816101200190151590811515815250506000819080600181540180825580915050906001820390600052602060002090600b0201600090919290919091506000820151816000015560208201518160010160006101000a81548173ffffffffffffffffffffffffffffffffffffffff021916908373ffffffffffffffffffffffffffffffffffffffff16021790555060408201518160020190805190602001906111f9929190611307565b506060820151816003019080519060200190611216929190611307565b506080820151816004015560a082015181600501908051906020019061123d929190611307565b5060c082015181600601908051906020019061125a929190611307565b5060e08201518160080160006101000a81548173ffffffffffffffffffffffffffffffffffffffff021916908373ffffffffffffffffffffffffffffffffffffffff160217905550610100820151816009015561012082015181600a0160006101000a81548160ff021916908315150217905550505050505050505050565b60008080549050905090565b6060604051908101604052806060815260200160008152602001600081525090565b828054600181600116156101000203166002900490600052602060002090601f016020900481019282601f1061134857805160ff1916838001178555611376565b82800160010185558215611376579182015b8281111561137557825182559160200191906001019061135a565b5b5090506113839190611409565b5090565b6101406040519081016040528060008152602001600073ffffffffffffffffffffffffffffffffffffffff1681526020016060815260200160608152602001600081526020016060815260200160608152602001600073ffffffffffffffffffffffffffffffffffffffff168152602001600081526020016000151581525090565b61142b91905b8082111561142757600081600090555060010161140f565b5090565b9056fea165627a7a7230582053a88315847dcd6f7c710b17db3be8faab8eb44364f56577fef17e85b8408a5f0029",
  "source": "pragma solidity ^0.5.0;\r\n\r\ncontract Daggle {\r\n\r\n  struct Competition {\r\n    uint id;\r\n    address problemOwner;\r\n    string title;\r\n    string description;\r\n    uint rewardAmount;\r\n    string trainDataPath;\r\n    string testDataPath;\r\n    mapping (address => Submission) submissions;\r\n    address currentLeader;\r\n    int256 bestAccuracy;\r\n    bool isFinished;\r\n  }\r\n\r\n  struct Submission {\r\n    string dataPath;\r\n    int256 accuracy;\r\n    uint timestamp;\r\n  }\r\n\r\n  Competition[] public competitions;\r\n\r\n  // Constructor\r\n  constructor() public {\r\n\r\n  }\r\n  function () external payable {\r\n  }\r\n\r\n  function getNumberOfCompetitions() public view returns (uint){\r\n    return competitions.length;\r\n  }\r\n\r\n  function createCompetition (\r\n    string memory _title,\r\n    string memory _description,\r\n    uint _rewardAmount,\r\n    string memory _trainDataPath,\r\n    string memory _testDataPath\r\n  ) public payable{\r\n\r\n    // assert(_rewardAmount > 0);\r\n\r\n    Competition memory newCompetition;\r\n    newCompetition.id = competitions.length;\r\n    newCompetition.problemOwner= msg.sender;\r\n    newCompetition.title = _title;\r\n    newCompetition.description = _description;\r\n    newCompetition.rewardAmount = _rewardAmount;\r\n    newCompetition.trainDataPath = _trainDataPath;\r\n    newCompetition.testDataPath = _testDataPath;\r\n    newCompetition.isFinished = false;\r\n\r\n    competitions.push(newCompetition);\r\n  }\r\n\r\n  // function getCompetition(uint id) public returns (Competition memory) {\r\n  //   return competitions[id];\r\n  // }\r\n\r\n  function submit(uint competitionId, string memory _fileAfid) public returns (bool) {\r\n\r\n    require(competitionId >= 0 && competitionId < competitions.length);\r\n\r\n    Competition storage competition = competitions[competitionId];\r\n\r\n    require(msg.sender != competition.problemOwner);\r\n    require(competition.isFinished == false);\r\n\r\n    competition.submissions[msg.sender] = Submission(_fileAfid, 1, block.timestamp);\r\n\r\n    competition.currentLeader = msg.sender;\r\n\r\n    return true;\r\n  }\r\n\r\n  function getSubmission(uint competitionId) public view returns (string memory, int256, uint) {\r\n    require(competitionId >= 0 && competitionId < competitions.length);\r\n\r\n    Competition storage competition = competitions[competitionId];\r\n    Submission memory mySubmission = competition.submissions[msg.sender];\r\n    return (mySubmission.dataPath, mySubmission.accuracy, mySubmission.timestamp);\r\n  }\r\n\r\n  // function evaluate() public returns (Submission) {\r\n  //   //TODO\r\n  // }\r\n\r\n  function endCompetition(uint competitionId) public payable returns (string memory, int256, uint) {\r\n\r\n      require(competitionId >= 0 && competitionId < competitions.length);\r\n\r\n      Competition storage competition = competitions[competitionId];\r\n\r\n      require(msg.sender == competition.problemOwner);\r\n      require(msg.value >= competition.rewardAmount);\r\n      require(competition.isFinished == false);\r\n\r\n      // cast address to address payable\r\n      address payable winner = address(uint160(competition.currentLeader));\r\n\r\n      winner.transfer(competition.rewardAmount);\r\n\r\n      competition.isFinished = true;\r\n\r\n      Submission memory bestSubmission = competition.submissions[winner];\r\n\r\n      return (bestSubmission.dataPath, bestSubmission.accuracy, bestSubmission.timestamp);\r\n    }\r\n\r\n}\r\n",
  "sourcePath": "C:/Users/user/Desktop/blockchain-project/contracts/Daggle.sol",
  "compiler": {
    "name": "solc",
    "version": "0.5.0+commit.1d4f565a.Emscripten.clang"
  },
  "schemaVersion": "3.0.9",
  "updatedAt": "2019-05-09T08:58:31.842Z",
  "devdoc": {
    "methods": {}
  },
  "userdoc": {
    "methods": {}
  }
}