{
  "contractName": "Daggle",
  "abi": [
    {
      "constant": true,
      "inputs": [
        {
          "name": "",
          "type": "uint256"
        }
      ],
      "name": "competitions",
      "outputs": [
        {
          "name": "id",
          "type": "uint256"
        },
        {
          "name": "problemOwner",
          "type": "address"
        },
        {
          "name": "title",
          "type": "string"
        },
        {
          "name": "description",
          "type": "string"
        },
        {
          "name": "rewardAmount",
          "type": "uint256"
        },
        {
          "name": "trainDataPath",
          "type": "string"
        },
        {
          "name": "testDataPath",
          "type": "string"
        },
        {
          "name": "currentLeader",
          "type": "address"
        },
        {
          "name": "bestAccuracy",
          "type": "int256"
        },
        {
          "name": "isFinished",
          "type": "bool"
        }
      ],
      "payable": false,
      "stateMutability": "view",
      "type": "function"
    },
    {
      "inputs": [],
      "payable": false,
      "stateMutability": "nonpayable",
      "type": "constructor"
    },
    {
      "payable": true,
      "stateMutability": "payable",
      "type": "fallback"
    },
    {
      "constant": true,
      "inputs": [],
      "name": "getNumberOfCompetitions",
      "outputs": [
        {
          "name": "",
          "type": "uint256"
        }
      ],
      "payable": false,
      "stateMutability": "view",
      "type": "function"
    },
    {
      "constant": false,
      "inputs": [
        {
          "name": "_title",
          "type": "string"
        },
        {
          "name": "_description",
          "type": "string"
        },
        {
          "name": "_rewardAmount",
          "type": "uint256"
        },
        {
          "name": "_trainDataPath",
          "type": "string"
        },
        {
          "name": "_testDataPath",
          "type": "string"
        }
      ],
      "name": "createCompetition",
      "outputs": [],
      "payable": true,
      "stateMutability": "payable",
      "type": "function"
    },
    {
      "constant": false,
      "inputs": [
        {
          "name": "competitionId",
          "type": "uint256"
        },
        {
          "name": "_competitor",
          "type": "address"
        },
        {
          "name": "_ipfsPath",
          "type": "string"
        },
        {
          "name": "_accuracy",
          "type": "int256"
        }
      ],
      "name": "submit",
      "outputs": [
        {
          "name": "",
          "type": "bool"
        }
      ],
      "payable": false,
      "stateMutability": "nonpayable",
      "type": "function"
    },
    {
      "constant": true,
      "inputs": [
        {
          "name": "competitionId",
          "type": "uint256"
        }
      ],
      "name": "getSubmission",
      "outputs": [
        {
          "name": "",
          "type": "string"
        },
        {
          "name": "",
          "type": "int256"
        },
        {
          "name": "",
          "type": "uint256"
        }
      ],
      "payable": false,
      "stateMutability": "view",
      "type": "function"
    },
    {
      "constant": false,
      "inputs": [
        {
          "name": "competitionId",
          "type": "uint256"
        }
      ],
      "name": "endCompetition",
      "outputs": [
        {
          "name": "",
          "type": "string"
        },
        {
          "name": "",
          "type": "int256"
        },
        {
          "name": "",
          "type": "uint256"
        }
      ],
      "payable": true,
      "stateMutability": "payable",
      "type": "function"
    }
  ],
  "bytecode": "0x608060405234801561001057600080fd5b5061149b806100206000396000f3fe608060405260043610610078576000357c0100000000000000000000000000000000000000000000000000000000900463ffffffff1680633e8686cc1461007a578063754aebe71461013c57806385b8a325146101f15780639f6828d914610305578063a1fdb59814610583578063d003c9691461080d575b005b34801561008657600080fd5b506100b36004803603602081101561009d57600080fd5b8101908080359060200190929190505050610838565b6040518080602001848152602001838152602001828103825285818151815260200191508051906020019080838360005b838110156100ff5780820151818401526020810190506100e4565b50505050905090810190601f16801561012c5780820380516001836020036101000a031916815260200191505b5094505050505060405180910390f35b6101686004803603602081101561015257600080fd5b81019080803590602001909291905050506109ab565b6040518080602001848152602001838152602001828103825285818151815260200191508051906020019080838360005b838110156101b4578082015181840152602081019050610199565b50505050905090810190601f1680156101e15780820380516001836020036101000a031916815260200191505b5094505050505060405180910390f35b3480156101fd57600080fd5b506102eb6004803603608081101561021457600080fd5b8101908080359060200190929190803573ffffffffffffffffffffffffffffffffffffffff1690602001909291908035906020019064010000000081111561025b57600080fd5b82018360208201111561026d57600080fd5b8035906020019184600183028401116401000000008311171561028f57600080fd5b91908080601f016020809104026020016040519081016040528093929190818152602001838380828437600081840152601f19601f82011690508083019250505050505050919291929080359060200190929190505050610c45565b604051808215151515815260200191505060405180910390f35b34801561031157600080fd5b5061033e6004803603602081101561032857600080fd5b8101908080359060200190929190505050610e00565b604051808b81526020018a73ffffffffffffffffffffffffffffffffffffffff1673ffffffffffffffffffffffffffffffffffffffff168152602001806020018060200189815260200180602001806020018873ffffffffffffffffffffffffffffffffffffffff1673ffffffffffffffffffffffffffffffffffffffff1681526020018781526020018615151515815260200185810385528d818151815260200191508051906020019080838360005b8381101561040a5780820151818401526020810190506103ef565b50505050905090810190601f1680156104375780820380516001836020036101000a031916815260200191505b5085810384528c818151815260200191508051906020019080838360005b83811015610470578082015181840152602081019050610455565b50505050905090810190601f16801561049d5780820380516001836020036101000a031916815260200191505b5085810383528a818151815260200191508051906020019080838360005b838110156104d65780820151818401526020810190506104bb565b50505050905090810190601f1680156105035780820380516001836020036101000a031916815260200191505b50858103825289818151815260200191508051906020019080838360005b8381101561053c578082015181840152602081019050610521565b50505050905090810190601f1680156105695780820380516001836020036101000a031916815260200191505b509e50505050505050505050505050505060405180910390f35b61080b600480360360a081101561059957600080fd5b81019080803590602001906401000000008111156105b657600080fd5b8201836020820111156105c857600080fd5b803590602001918460018302840111640100000000831117156105ea57600080fd5b91908080601f016020809104026020016040519081016040528093929190818152602001838380828437600081840152601f19601f8201169050808301925050505050505091929192908035906020019064010000000081111561064d57600080fd5b82018360208201111561065f57600080fd5b8035906020019184600183028401116401000000008311171561068157600080fd5b91908080601f016020809104026020016040519081016040528093929190818152602001838380828437600081840152601f19601f82011690508083019250505050505050919291929080359060200190929190803590602001906401000000008111156106ee57600080fd5b82018360208201111561070057600080fd5b8035906020019184600183028401116401000000008311171561072257600080fd5b91908080601f016020809104026020016040519081016040528093929190818152602001838380828437600081840152601f19601f8201169050808301925050505050505091929192908035906020019064010000000081111561078557600080fd5b82018360208201111561079757600080fd5b803590602001918460018302840111640100000000831117156107b957600080fd5b91908080601f016020809104026020016040519081016040528093929190818152602001838380828437600081840152601f19601f820116905080830192505050505050509192919290505050611110565b005b34801561081957600080fd5b5061082261131a565b6040518082815260200191505060405180910390f35b606060008060008410158015610852575060008054905084105b151561085d57600080fd5b6000808581548110151561086d57fe5b90600052602060002090600b02019050610885611326565b8160070160003373ffffffffffffffffffffffffffffffffffffffff1673ffffffffffffffffffffffffffffffffffffffff16815260200190815260200160002060606040519081016040529081600082018054600181600116156101000203166002900480601f01602080910402602001604051908101604052809291908181526020018280546001816001161561010002031660029004801561096b5780601f106109405761010080835404028352916020019161096b565b820191906000526020600020905b81548152906001019060200180831161094e57829003601f168201915b5050505050815260200160018201548152602001600282015481525050905080600001518160200151826040015182925094509450945050509193909250565b6060600080600084101580156109c5575060008054905084105b15156109d057600080fd5b600080858154811015156109e057fe5b90600052602060002090600b020190508060010160009054906101000a900473ffffffffffffffffffffffffffffffffffffffff1673ffffffffffffffffffffffffffffffffffffffff163373ffffffffffffffffffffffffffffffffffffffff16141515610a4e57600080fd5b80600401543410151515610a6157600080fd5b6000151581600a0160009054906101000a900460ff161515141515610a8557600080fd5b60008160080160009054906101000a900473ffffffffffffffffffffffffffffffffffffffff1690508073ffffffffffffffffffffffffffffffffffffffff166108fc83600401549081150290604051600060405180830381858888f19350505050158015610af8573d6000803e3d6000fd5b50600182600a0160006101000a81548160ff021916908315150217905550610b1e611326565b8260070160008373ffffffffffffffffffffffffffffffffffffffff1673ffffffffffffffffffffffffffffffffffffffff16815260200190815260200160002060606040519081016040529081600082018054600181600116156101000203166002900480601f016020809104026020016040519081016040528092919081815260200182805460018160011615610100020316600290048015610c045780601f10610bd957610100808354040283529160200191610c04565b820191906000526020600020905b815481529060010190602001808311610be757829003601f168201915b505050505081526020016001820154815260200160028201548152505090508060000151816020015182604001518292509550955095505050509193909250565b6000808510158015610c5b575060008054905085105b1515610c6657600080fd5b60008086815481101515610c7657fe5b90600052602060002090600b020190508060010160009054906101000a900473ffffffffffffffffffffffffffffffffffffffff1673ffffffffffffffffffffffffffffffffffffffff163373ffffffffffffffffffffffffffffffffffffffff1614151515610ce557600080fd5b6000151581600a0160009054906101000a900460ff161515141515610d0957600080fd5b606060405190810160405280858152602001848152602001428152508160070160008773ffffffffffffffffffffffffffffffffffffffff1673ffffffffffffffffffffffffffffffffffffffff1681526020019081526020016000206000820151816000019080519060200190610d82929190611348565b5060208201518160010155604082015181600201559050508060090154831315610df357828160090181905550848160080160006101000a81548173ffffffffffffffffffffffffffffffffffffffff021916908373ffffffffffffffffffffffffffffffffffffffff1602179055505b6001915050949350505050565b600081815481101515610e0f57fe5b90600052602060002090600b02016000915090508060000154908060010160009054906101000a900473ffffffffffffffffffffffffffffffffffffffff1690806002018054600181600116156101000203166002900480601f016020809104026020016040519081016040528092919081815260200182805460018160011615610100020316600290048015610ee75780601f10610ebc57610100808354040283529160200191610ee7565b820191906000526020600020905b815481529060010190602001808311610eca57829003601f168201915b505050505090806003018054600181600116156101000203166002900480601f016020809104026020016040519081016040528092919081815260200182805460018160011615610100020316600290048015610f855780601f10610f5a57610100808354040283529160200191610f85565b820191906000526020600020905b815481529060010190602001808311610f6857829003601f168201915b505050505090806004015490806005018054600181600116156101000203166002900480601f0160208091040260200160405190810160405280929190818152602001828054600181600116156101000203166002900480156110295780601f10610ffe57610100808354040283529160200191611029565b820191906000526020600020905b81548152906001019060200180831161100c57829003601f168201915b505050505090806006018054600181600116156101000203166002900480601f0160208091040260200160405190810160405280929190818152602001828054600181600116156101000203166002900480156110c75780601f1061109c576101008083540402835291602001916110c7565b820191906000526020600020905b8154815290600101906020018083116110aa57829003601f168201915b5050505050908060080160009054906101000a900473ffffffffffffffffffffffffffffffffffffffff169080600901549080600a0160009054906101000a900460ff1690508a565b6111186113c8565b60008054905081600001818152505033816020019073ffffffffffffffffffffffffffffffffffffffff16908173ffffffffffffffffffffffffffffffffffffffff168152505085816040018190525084816060018190525083816080018181525050828160a00181905250818160c001819052506000816101200190151590811515815250506000819080600181540180825580915050906001820390600052602060002090600b0201600090919290919091506000820151816000015560208201518160010160006101000a81548173ffffffffffffffffffffffffffffffffffffffff021916908373ffffffffffffffffffffffffffffffffffffffff160217905550604082015181600201908051906020019061123a929190611348565b506060820151816003019080519060200190611257929190611348565b506080820151816004015560a082015181600501908051906020019061127e929190611348565b5060c082015181600601908051906020019061129b929190611348565b5060e08201518160080160006101000a81548173ffffffffffffffffffffffffffffffffffffffff021916908373ffffffffffffffffffffffffffffffffffffffff160217905550610100820151816009015561012082015181600a0160006101000a81548160ff021916908315150217905550505050505050505050565b60008080549050905090565b6060604051908101604052806060815260200160008152602001600081525090565b828054600181600116156101000203166002900490600052602060002090601f016020900481019282601f1061138957805160ff19168380011785556113b7565b828001600101855582156113b7579182015b828111156113b657825182559160200191906001019061139b565b5b5090506113c4919061144a565b5090565b6101406040519081016040528060008152602001600073ffffffffffffffffffffffffffffffffffffffff1681526020016060815260200160608152602001600081526020016060815260200160608152602001600073ffffffffffffffffffffffffffffffffffffffff168152602001600081526020016000151581525090565b61146c91905b80821115611468576000816000905550600101611450565b5090565b9056fea165627a7a72305820612282011b7724fcc12e2089a99b51195af6ba3359daaa5e10869580b7ec90f00029",
  "source": "pragma solidity ^0.5.0;\r\n\r\ncontract Daggle {\r\n\r\n  struct Competition {\r\n    uint id;\r\n    address problemOwner;\r\n    string title;\r\n    string description;\r\n    uint rewardAmount;\r\n    string trainDataPath;\r\n    string testDataPath;\r\n    mapping (address => Submission) submissions;\r\n    address currentLeader;\r\n    int256 bestAccuracy;\r\n    bool isFinished;\r\n  }\r\n\r\n  struct Submission {\r\n    string dataPath;\r\n    int256 accuracy;\r\n    uint timestamp;\r\n  }\r\n\r\n  Competition[] public competitions;\r\n\r\n  // Constructor\r\n  constructor() public {\r\n\r\n  }\r\n  function () external payable {\r\n  }\r\n\r\n  function getNumberOfCompetitions() public view returns (uint){\r\n    return competitions.length;\r\n  }\r\n\r\n  function createCompetition (\r\n    string memory _title,\r\n    string memory _description,\r\n    uint _rewardAmount,\r\n    string memory _trainDataPath,\r\n    string memory _testDataPath\r\n  ) public payable{\r\n\r\n    // assert(_rewardAmount > 0);\r\n\r\n    Competition memory newCompetition;\r\n    newCompetition.id = competitions.length;\r\n    newCompetition.problemOwner= msg.sender;\r\n    newCompetition.title = _title;\r\n    newCompetition.description = _description;\r\n    newCompetition.rewardAmount = _rewardAmount;\r\n    newCompetition.trainDataPath = _trainDataPath;\r\n    newCompetition.testDataPath = _testDataPath;\r\n    newCompetition.isFinished = false;\r\n\r\n    competitions.push(newCompetition);\r\n  }\r\n\r\n  // function getCompetition(uint id) public returns (Competition memory) {\r\n  //   return competitions[id];\r\n  // }\r\n\r\n  function submit(uint competitionId, address _competitor, string memory _ipfsPath, int256 _accuracy) public returns (bool) {\r\n\r\n    require(competitionId >= 0 && competitionId < competitions.length);\r\n\r\n    Competition storage competition = competitions[competitionId];\r\n\r\n    require(msg.sender != competition.problemOwner);\r\n    require(competition.isFinished == false);\r\n\r\n    competition.submissions[_competitor] = Submission(_ipfsPath, _accuracy, block.timestamp);\r\n\r\n    if (_accuracy > competition.bestAccuracy) {\r\n      competition.bestAccuracy = _accuracy;\r\n      competition.currentLeader = _competitor;\r\n    }\r\n\r\n    return true;\r\n  }\r\n\r\n  function getSubmission(uint competitionId) public view returns (string memory, int256, uint) {\r\n    require(competitionId >= 0 && competitionId < competitions.length);\r\n\r\n    Competition storage competition = competitions[competitionId];\r\n    Submission memory mySubmission = competition.submissions[msg.sender];\r\n    return (mySubmission.dataPath, mySubmission.accuracy, mySubmission.timestamp);\r\n  }\r\n\r\n  // function evaluate() public returns (Submission) {\r\n  //   //TODO\r\n  // }\r\n\r\n  function endCompetition(uint competitionId) public payable returns (string memory, int256, uint) {\r\n\r\n      require(competitionId >= 0 && competitionId < competitions.length);\r\n\r\n      Competition storage competition = competitions[competitionId];\r\n\r\n      require(msg.sender == competition.problemOwner);\r\n      require(msg.value >= competition.rewardAmount);\r\n      require(competition.isFinished == false);\r\n\r\n      // cast address to address payable\r\n      address payable winner = address(uint160(competition.currentLeader));\r\n\r\n      winner.transfer(competition.rewardAmount);\r\n\r\n      competition.isFinished = true;\r\n\r\n      Submission memory bestSubmission = competition.submissions[winner];\r\n\r\n      return (bestSubmission.dataPath, bestSubmission.accuracy, bestSubmission.timestamp);\r\n    }\r\n\r\n}\r\n",
  "sourcePath": "C:/Users/user/Desktop/blockchain-project/contracts/Daggle.sol",
  "compiler": {
    "name": "solc",
    "version": "0.5.0+commit.1d4f565a.Emscripten.clang"
  },
  "schemaVersion": "3.0.9",
  "updatedAt": "2019-05-09T08:26:10.914Z",
  "devdoc": {
    "methods": {}
  },
  "userdoc": {
    "methods": {}
  }
}