{
  "contractName": "Daggle",
  "abi": [
    {
      "constant": true,
      "inputs": [
        {
          "name": "",
          "type": "uint256"
        }
      ],
      "name": "competitions",
      "outputs": [
        {
          "name": "id",
          "type": "uint256"
        },
        {
          "name": "problemOwner",
          "type": "address"
        },
        {
          "name": "title",
          "type": "string"
        },
        {
          "name": "description",
          "type": "string"
        },
        {
          "name": "rewardAmount",
          "type": "uint256"
        },
        {
          "name": "trainDataPath",
          "type": "string"
        },
        {
          "name": "testDataPath",
          "type": "string"
        },
        {
          "name": "currentLeader",
          "type": "address"
        },
        {
          "name": "bestAccuracy",
          "type": "int256"
        },
        {
          "name": "isFinished",
          "type": "bool"
        }
      ],
      "payable": false,
      "stateMutability": "view",
      "type": "function"
    },
    {
      "inputs": [],
      "payable": false,
      "stateMutability": "nonpayable",
      "type": "constructor"
    },
    {
      "constant": false,
      "inputs": [
        {
          "name": "_title",
          "type": "string"
        },
        {
          "name": "_description",
          "type": "string"
        },
        {
          "name": "_rewardAmount",
          "type": "uint256"
        },
        {
          "name": "_trainDataPath",
          "type": "string"
        },
        {
          "name": "_testDataPath",
          "type": "string"
        }
      ],
      "name": "createCompetition",
      "outputs": [],
      "payable": false,
      "stateMutability": "nonpayable",
      "type": "function"
    },
    {
      "constant": false,
      "inputs": [
        {
          "name": "competitionId",
          "type": "uint256"
        },
        {
          "name": "_competitor",
          "type": "address"
        },
        {
          "name": "_ipfsPath",
          "type": "string"
        },
        {
          "name": "_accuracy",
          "type": "int256"
        }
      ],
      "name": "submit",
      "outputs": [
        {
          "name": "",
          "type": "bool"
        }
      ],
      "payable": false,
      "stateMutability": "nonpayable",
      "type": "function"
    },
    {
      "constant": true,
      "inputs": [
        {
          "name": "competitionId",
          "type": "uint256"
        }
      ],
      "name": "getSubmission",
      "outputs": [
        {
          "name": "",
          "type": "string"
        },
        {
          "name": "",
          "type": "int256"
        },
        {
          "name": "",
          "type": "uint256"
        }
      ],
      "payable": false,
      "stateMutability": "view",
      "type": "function"
    },
    {
      "constant": false,
      "inputs": [
        {
          "name": "competitionId",
          "type": "uint256"
        }
      ],
      "name": "endCompetition",
      "outputs": [
        {
          "name": "",
          "type": "string"
        },
        {
          "name": "",
          "type": "int256"
        },
        {
          "name": "",
          "type": "uint256"
        }
      ],
      "payable": true,
      "stateMutability": "payable",
      "type": "function"
    }
  ],
  "bytecode": "0x608060405234801561001057600080fd5b50611475806100206000396000f3fe60806040526004361061006d576000357c0100000000000000000000000000000000000000000000000000000000900463ffffffff1680633e8686cc14610072578063754aebe71461013457806385b8a325146101e95780639f6828d9146102fd578063a1fdb5981461057b575b600080fd5b34801561007e57600080fd5b506100ab6004803603602081101561009557600080fd5b8101908080359060200190929190505050610812565b6040518080602001848152602001838152602001828103825285818151815260200191508051906020019080838360005b838110156100f75780820151818401526020810190506100dc565b50505050905090810190601f1680156101245780820380516001836020036101000a031916815260200191505b5094505050505060405180910390f35b6101606004803603602081101561014a57600080fd5b8101908080359060200190929190505050610985565b6040518080602001848152602001838152602001828103825285818151815260200191508051906020019080838360005b838110156101ac578082015181840152602081019050610191565b50505050905090810190601f1680156101d95780820380516001836020036101000a031916815260200191505b5094505050505060405180910390f35b3480156101f557600080fd5b506102e36004803603608081101561020c57600080fd5b8101908080359060200190929190803573ffffffffffffffffffffffffffffffffffffffff1690602001909291908035906020019064010000000081111561025357600080fd5b82018360208201111561026557600080fd5b8035906020019184600183028401116401000000008311171561028757600080fd5b91908080601f016020809104026020016040519081016040528093929190818152602001838380828437600081840152601f19601f82011690508083019250505050505050919291929080359060200190929190505050610c1f565b604051808215151515815260200191505060405180910390f35b34801561030957600080fd5b506103366004803603602081101561032057600080fd5b8101908080359060200190929190505050610dda565b604051808b81526020018a73ffffffffffffffffffffffffffffffffffffffff1673ffffffffffffffffffffffffffffffffffffffff168152602001806020018060200189815260200180602001806020018873ffffffffffffffffffffffffffffffffffffffff1673ffffffffffffffffffffffffffffffffffffffff1681526020018781526020018615151515815260200185810385528d818151815260200191508051906020019080838360005b838110156104025780820151818401526020810190506103e7565b50505050905090810190601f16801561042f5780820380516001836020036101000a031916815260200191505b5085810384528c818151815260200191508051906020019080838360005b8381101561046857808201518184015260208101905061044d565b50505050905090810190601f1680156104955780820380516001836020036101000a031916815260200191505b5085810383528a818151815260200191508051906020019080838360005b838110156104ce5780820151818401526020810190506104b3565b50505050905090810190601f1680156104fb5780820380516001836020036101000a031916815260200191505b50858103825289818151815260200191508051906020019080838360005b83811015610534578082015181840152602081019050610519565b50505050905090810190601f1680156105615780820380516001836020036101000a031916815260200191505b509e50505050505050505050505050505060405180910390f35b34801561058757600080fd5b50610810600480360360a081101561059e57600080fd5b81019080803590602001906401000000008111156105bb57600080fd5b8201836020820111156105cd57600080fd5b803590602001918460018302840111640100000000831117156105ef57600080fd5b91908080601f016020809104026020016040519081016040528093929190818152602001838380828437600081840152601f19601f8201169050808301925050505050505091929192908035906020019064010000000081111561065257600080fd5b82018360208201111561066457600080fd5b8035906020019184600183028401116401000000008311171561068657600080fd5b91908080601f016020809104026020016040519081016040528093929190818152602001838380828437600081840152601f19601f82011690508083019250505050505050919291929080359060200190929190803590602001906401000000008111156106f357600080fd5b82018360208201111561070557600080fd5b8035906020019184600183028401116401000000008311171561072757600080fd5b91908080601f016020809104026020016040519081016040528093929190818152602001838380828437600081840152601f19601f8201169050808301925050505050505091929192908035906020019064010000000081111561078a57600080fd5b82018360208201111561079c57600080fd5b803590602001918460018302840111640100000000831117156107be57600080fd5b91908080601f016020809104026020016040519081016040528093929190818152602001838380828437600081840152601f19601f8201169050808301925050505050505091929192905050506110ea565b005b60606000806000841015801561082c575060008054905084105b151561083757600080fd5b6000808581548110151561084757fe5b90600052602060002090600b0201905061085f611300565b8160070160003373ffffffffffffffffffffffffffffffffffffffff1673ffffffffffffffffffffffffffffffffffffffff16815260200190815260200160002060606040519081016040529081600082018054600181600116156101000203166002900480601f0160208091040260200160405190810160405280929190818152602001828054600181600116156101000203166002900480156109455780601f1061091a57610100808354040283529160200191610945565b820191906000526020600020905b81548152906001019060200180831161092857829003601f168201915b5050505050815260200160018201548152602001600282015481525050905080600001518160200151826040015182925094509450945050509193909250565b60606000806000841015801561099f575060008054905084105b15156109aa57600080fd5b600080858154811015156109ba57fe5b90600052602060002090600b020190508060010160009054906101000a900473ffffffffffffffffffffffffffffffffffffffff1673ffffffffffffffffffffffffffffffffffffffff163373ffffffffffffffffffffffffffffffffffffffff16141515610a2857600080fd5b80600401543410151515610a3b57600080fd5b6000151581600a0160009054906101000a900460ff161515141515610a5f57600080fd5b60008160080160009054906101000a900473ffffffffffffffffffffffffffffffffffffffff1690508073ffffffffffffffffffffffffffffffffffffffff166108fc83600401549081150290604051600060405180830381858888f19350505050158015610ad2573d6000803e3d6000fd5b50600182600a0160006101000a81548160ff021916908315150217905550610af8611300565b8260070160008373ffffffffffffffffffffffffffffffffffffffff1673ffffffffffffffffffffffffffffffffffffffff16815260200190815260200160002060606040519081016040529081600082018054600181600116156101000203166002900480601f016020809104026020016040519081016040528092919081815260200182805460018160011615610100020316600290048015610bde5780601f10610bb357610100808354040283529160200191610bde565b820191906000526020600020905b815481529060010190602001808311610bc157829003601f168201915b505050505081526020016001820154815260200160028201548152505090508060000151816020015182604001518292509550955095505050509193909250565b6000808510158015610c35575060008054905085105b1515610c4057600080fd5b60008086815481101515610c5057fe5b90600052602060002090600b020190508060010160009054906101000a900473ffffffffffffffffffffffffffffffffffffffff1673ffffffffffffffffffffffffffffffffffffffff163373ffffffffffffffffffffffffffffffffffffffff1614151515610cbf57600080fd5b6000151581600a0160009054906101000a900460ff161515141515610ce357600080fd5b606060405190810160405280858152602001848152602001428152508160070160008773ffffffffffffffffffffffffffffffffffffffff1673ffffffffffffffffffffffffffffffffffffffff1681526020019081526020016000206000820151816000019080519060200190610d5c929190611322565b5060208201518160010155604082015181600201559050508060090154831315610dcd57828160090181905550848160080160006101000a81548173ffffffffffffffffffffffffffffffffffffffff021916908373ffffffffffffffffffffffffffffffffffffffff1602179055505b6001915050949350505050565b600081815481101515610de957fe5b90600052602060002090600b02016000915090508060000154908060010160009054906101000a900473ffffffffffffffffffffffffffffffffffffffff1690806002018054600181600116156101000203166002900480601f016020809104026020016040519081016040528092919081815260200182805460018160011615610100020316600290048015610ec15780601f10610e9657610100808354040283529160200191610ec1565b820191906000526020600020905b815481529060010190602001808311610ea457829003601f168201915b505050505090806003018054600181600116156101000203166002900480601f016020809104026020016040519081016040528092919081815260200182805460018160011615610100020316600290048015610f5f5780601f10610f3457610100808354040283529160200191610f5f565b820191906000526020600020905b815481529060010190602001808311610f4257829003601f168201915b505050505090806004015490806005018054600181600116156101000203166002900480601f0160208091040260200160405190810160405280929190818152602001828054600181600116156101000203166002900480156110035780601f10610fd857610100808354040283529160200191611003565b820191906000526020600020905b815481529060010190602001808311610fe657829003601f168201915b505050505090806006018054600181600116156101000203166002900480601f0160208091040260200160405190810160405280929190818152602001828054600181600116156101000203166002900480156110a15780601f10611076576101008083540402835291602001916110a1565b820191906000526020600020905b81548152906001019060200180831161108457829003601f168201915b5050505050908060080160009054906101000a900473ffffffffffffffffffffffffffffffffffffffff169080600901549080600a0160009054906101000a900460ff1690508a565b6000831115156110f657fe5b6110fe6113a2565b60008054905081600001818152505033816020019073ffffffffffffffffffffffffffffffffffffffff16908173ffffffffffffffffffffffffffffffffffffffff168152505085816040018190525084816060018190525083816080018181525050828160a00181905250818160c001819052506000816101200190151590811515815250506000819080600181540180825580915050906001820390600052602060002090600b0201600090919290919091506000820151816000015560208201518160010160006101000a81548173ffffffffffffffffffffffffffffffffffffffff021916908373ffffffffffffffffffffffffffffffffffffffff1602179055506040820151816002019080519060200190611220929190611322565b50606082015181600301908051906020019061123d929190611322565b506080820151816004015560a0820151816005019080519060200190611264929190611322565b5060c0820151816006019080519060200190611281929190611322565b5060e08201518160080160006101000a81548173ffffffffffffffffffffffffffffffffffffffff021916908373ffffffffffffffffffffffffffffffffffffffff160217905550610100820151816009015561012082015181600a0160006101000a81548160ff021916908315150217905550505050505050505050565b6060604051908101604052806060815260200160008152602001600081525090565b828054600181600116156101000203166002900490600052602060002090601f016020900481019282601f1061136357805160ff1916838001178555611391565b82800160010185558215611391579182015b82811115611390578251825591602001919060010190611375565b5b50905061139e9190611424565b5090565b6101406040519081016040528060008152602001600073ffffffffffffffffffffffffffffffffffffffff1681526020016060815260200160608152602001600081526020016060815260200160608152602001600073ffffffffffffffffffffffffffffffffffffffff168152602001600081526020016000151581525090565b61144691905b8082111561144257600081600090555060010161142a565b5090565b9056fea165627a7a7230582036fdd63cd19d3cc518708904423020e981aaec4ac49b6fe049901d026c06af7b0029",
  "source": "pragma solidity ^0.5.0;\n\ncontract Daggle {\n\n  struct Competition {\n    uint id;\n    address problemOwner;\n    string title;\n    string description;\n    uint rewardAmount;\n    string trainDataPath;\n    string testDataPath;\n    mapping (address => Submission) submissions;\n    address currentLeader;\n    int256 bestAccuracy;\n    bool isFinished;\n  }\n\n  struct Submission {\n    string dataPath;\n    int256 accuracy;\n    uint timestamp;\n  }\n  \n  Competition[] public competitions;\n\n  // Constructor\n  constructor() public {\n\n  }\n\n  function createCompetition (\n    string memory _title, \n    string memory _description, \n    uint _rewardAmount, \n    string memory _trainDataPath, \n    string memory _testDataPath\n  ) public {\n\n    assert(_rewardAmount > 0);\n    // require(msg.value >= _rewardAmount);\n\n    Competition memory newCompetition;\n    newCompetition.id = competitions.length;\n    newCompetition.problemOwner= msg.sender;\n    newCompetition.title = _title;\n    newCompetition.description = _description;\n    newCompetition.rewardAmount = _rewardAmount;\n    newCompetition.trainDataPath = _trainDataPath;\n    newCompetition.testDataPath = _testDataPath;\n    newCompetition.isFinished = false;\n\n    competitions.push(newCompetition);    \n  }\n\n  // function getCompetition(uint id) public returns (Competition memory) {\n  //   return competitions[id];\n  // }\n\n  function submit(uint competitionId, address _competitor, string memory _ipfsPath, int256 _accuracy) public returns (bool) {\n    \n    require(competitionId >= 0 && competitionId < competitions.length);\n\n    Competition storage competition = competitions[competitionId];\n\n    require(msg.sender != competition.problemOwner);\n    require(competition.isFinished == false);\n    \n    competition.submissions[_competitor] = Submission(_ipfsPath, _accuracy, block.timestamp);\n\n    if (_accuracy > competition.bestAccuracy) {\n      competition.bestAccuracy = _accuracy;\n      competition.currentLeader = _competitor;\n    }\n\n    return true;\n  }\n\n  function getSubmission(uint competitionId) public view returns (string memory, int256, uint) {\n    require(competitionId >= 0 && competitionId < competitions.length);\n\n    Competition storage competition = competitions[competitionId];\n    Submission memory mySubmission = competition.submissions[msg.sender];\n    return (mySubmission.dataPath, mySubmission.accuracy, mySubmission.timestamp);\n  }\n\n  // function evaluate() public returns (Submission) {\n  //   //TODO\n  // }\n\n  function endCompetition(uint competitionId) public payable returns (string memory, int256, uint) {\n      \n      require(competitionId >= 0 && competitionId < competitions.length);\n\n      Competition storage competition = competitions[competitionId];\n\n      require(msg.sender == competition.problemOwner);\n      require(msg.value >= competition.rewardAmount);\n      require(competition.isFinished == false);\n\n      // cast address to address payable\n      address payable winner = address(uint160(competition.currentLeader));\n\n      winner.transfer(competition.rewardAmount);\n      \n      competition.isFinished = true;\n\n      Submission memory bestSubmission = competition.submissions[winner];\n\n      return (bestSubmission.dataPath, bestSubmission.accuracy, bestSubmission.timestamp);\n    }\n\n}",
  "sourcePath": "/Users/leon/Files/bdt/MSBD6000D/project/pet-shop-tutorial/contracts/Daggle.sol",
  "compiler": {
    "name": "solc",
    "version": "0.5.0+commit.1d4f565a.Emscripten.clang"
  },
  "schemaVersion": "3.0.9",
  "updatedAt": "2019-05-08T12:35:27.927Z",
  "devdoc": {
    "methods": {}
  },
  "userdoc": {
    "methods": {}
  }
}